:020000040800F2
:1000000000000220D9510008A5160008A716000814
:10001000A9160008AB160008AD1600080000000085
:10002000000000000000000000000000AF16000803
:10003000B116000800000000B3160008B51600084D
:1000400029520008295200082952000829520008A4
:100050002952000829520008295200082952000894
:100060002952000829520008BD160008295200082C
:100070002952000829520008295200082952000874
:100080002952000829520008295200082952000864
:10009000D11600082952000829520008E516000868
:1000A00029520008011700082952000829520008A7
:1000B0002952000829520008295200082952000834
:1000C0002952000829520008295200082952000824
:1000D0002952000829520008295200082952000814
:1000E0002952000829520008295200082952000804
:1000F00029520008295200082952000829520008F4
:1001000029520008295200082952000829520008E3
:10011000295200082952000819170008451700083D
:1001200029520008295200082952000829520008C3
:1001300029520008000000000000000029520008B9
:1001400029520008295200082952000829520008A3
:100150002952000829520008295200082952000893
:100160002952000829520008295200082952000883
:100170002952000829520008000000000000000079
:08018000295200082952000871
:1001880010B5054C237833B9044B13B10448AFF3C9
:1001980000800123237010BD7800002000000000BB
:1001A800D46800080C4B43B10C480D4910B5AFF3A7
:1001B80000800C48036823B910BD0A48036833B9A6
:1001C8007047094B002BF7D0BDE810401847064B85
:1001D800002BF5D0184700BF00000000D4680008C5
:1001E8007C000020780000200000000081F0004121
:1001F80002E000BF83F0004330B54FEA41044FEA04
:10020800430594EA050F08BF90EA020F1FBF54EA9E
:10021800000C55EA020C7FEA645C7FEA655C00F03A
:10022800E2804FEA5454D4EB5555B8BF6D420CDD0B
:100238002C4480EA020281EA030382EA000083EA8E
:10024800010180EA020281EA0303362D88BF30BD2E
:1002580011F0004F4FEA01314FF4801C4CEA113184
:1002680002D0404261EB410113F0004F4FEA0333E3
:100278004CEA133302D0524263EB430394EA050F6E
:1002880000F0A780A4F10104D5F1200E0DDB02FADD
:100298000EFC22FA05F2801841F1000103FA0EF271
:1002A800801843FA05F359410EE0A5F120050EF137
:1002B800200E012A03FA0EFC28BF4CF0020C43FA68
:1002C80005F3C01851EBE37101F0004507D54FF075
:1002D800000EDCF1000C7EEB00006EEB0101B1F5C5
:1002E800801F1BD3B1F5001F0CD349085FEA30000B
:1002F8004FEA3C0C04F101044FEA445212F5800F16
:1003080080F09A80BCF1004F08BF5FEA500C50F1B2
:10031800000041EB045141EA050130BD5FEA4C0C95
:10032800404141EB010111F4801FA4F10104E9D11E
:1003380091F0000F04BF01460020B1FA81F308BF15
:100348002033A3F10B03B3F120020CDA0C3208DDE1
:1003580002F1140CC2F10C0201FA0CF021FA02F1BC
:100368000CE002F11402D8BFC2F1200C01FA02F12C
:1003780020FA0CFCDCBF41EA0C019040E41AA2BF51
:1003880001EB0451294330BD6FEA04041F3C1CDA19
:100398000C340EDC04F11404C4F1200220FA04F039
:1003A80001FA02F340EA030021FA04F345EA0301E3
:1003B80030BDC4F10C04C4F1200220FA02F001FAA5
:1003C80004F340EA0300294630BD21FA04F0294627
:1003D80030BD94F0000F83F4801306BF81F48011C0
:1003E8000134013D4EE77FEA645C18BF7FEA655C33
:1003F80029D094EA050F08BF90EA020F05D054EA05
:10040800000C04BF1946104630BD91EA030F1EBF09
:100418000021002030BD5FEA545C05D1400049410D
:1004280028BF41F0004130BD14F580043CBF01F500
:10043800801130BD01F0004545F0FE4141F47001E6
:100448004FF0000030BD7FEA645C1ABF19461046C1
:100458007FEA655C1CBF0B46024650EA013406BFC2
:1004680052EA033591EA030F41F4002130BD00BF81
:1004780090F0000F04BF0021704730B54FF480643E
:1004880004F132044FF000054FF0000150E700BFBF
:1004980090F0000F04BF0021704730B54FF480641E
:1004A80004F1320410F0004548BF40424FF000010B
:1004B8003EE700BF42004FEAE2014FEA31014FEA4E
:1004C80002701FBF12F07F4393F07F4F81F060519D
:1004D800704792F0000F14BF93F07F4F704730B50C
:1004E8004FF4607401F0004521F0004120E700BF9F
:1004F80050EA010208BF704730B54FF000050AE026
:1005080050EA010208BF704730B511F0004502D526
:10051800404261EB41014FF4806404F132045FEA28
:10052800915C3FF4DCAE4FF003025FEADC0C18BFCD
:1005380003325FEADC0C18BF033202EBDC02C2F1C3
:10054800200300FA03FC20FA02F001FA03FE40EA55
:100558000E0021FA02F11444C1E600BF70B54FF055
:10056800FF0C4CF4E06C1CEA11541DBF1CEA135537
:1005780094EA0C0F95EA0C0F00F0DEF82C4481EA9F
:10058800030621EA4C5123EA4C5350EA013518BFBF
:1005980052EA033541F4801143F4801338D0A0FBAC
:1005A80002CE4FF00005E1FB02E506F00042E0FB59
:1005B80003E54FF00006E1FB03569CF0000F18BF5F
:1005C8004EF0010EA4F1FF04B6F5007F64F5407407
:1005D80004D25FEA4E0E6D4146EB060642EAC6219A
:1005E80041EA55514FEAC52040EA5E504FEACE2E07
:1005F800B4F1FD0C88BFBCF5E06F1ED8BEF1004F0A
:1006080008BF5FEA500E50F1000041EB045170BD85
:1006180006F0004646EA010140EA020081EA0301C9
:10062800B4EB5C04C2BFD4EB0C0541EA045170BDC5
:1006380041F480114FF0000E013C00F3AB8014F13F
:10064800360FDEBF002001F0004170BDC4F1000488
:10065800203C35DA0C341BDC04F11404C4F1200509
:1006680000FA05F320FA04F001FA05F240EA020064
:1006780001F0004221F0004110EBD37021FA04F69A
:1006880042EB06015EEA430E08BF20EAD37070BD54
:10069800C4F10C04C4F1200500FA04F320FA05F0B3
:1006A80001FA04F240EA020001F0004110EBD370B5
:1006B80041F100015EEA430E08BF20EAD37070BD25
:1006C800C4F1200500FA05F24EEA020E20FA04F3FE
:1006D80001FA05F243EA020321FA04F001F00041AD
:1006E80021FA04F220EA020000EBD3705EEA430E1E
:1006F80008BF20EAD37070BD94F0000F0FD101F04D
:100708000046400041EB010111F4801F08BF013C85
:10071800F7D041EA060195F0000F18BF704703F0C3
:100728000046520043EB030313F4801F08BF013D4A
:10073800F7D043EA0603704794EA0C0F0CEA135506
:1007480018BF95EA0C0F0CD050EA410618BF52EAC0
:100758004306D1D181EA030101F000414FF00000C6
:1007680070BD50EA410606BF1046194652EA4306D4
:1007780019D094EA0C0F02D150EA013613D195EA48
:100788000C0F05D152EA03361CBF104619460AD190
:1007980081EA030101F0004141F0FE4141F470019A
:1007A8004FF0000070BD41F0FE4141F4780170BD8A
:1007B80070B54FF0FF0C4CF4E06C1CEA11541DBFEF
:1007C8001CEA135594EA0C0F95EA0C0F00F0A7F8F1
:1007D800A4EB050481EA030E52EA03354FEA01311E
:1007E80000F088804FEA03334FF0805545EA131331
:1007F80043EA12634FEA022245EA111545EA1065F9
:100808004FEA00260EF000419D4208BF964244F18F
:10081800FD0404F5407402D25B084FEA3202B61AAE
:1008280065EB03055B084FEA32024FF480104FF482
:10083800002CB6EB020E75EB030E22BFB61A7546F6
:1008480040EA0C005B084FEA3202B6EB020E75EB89
:10085800030E22BFB61A754640EA5C005B084FEAF1
:100868003202B6EB020E75EB030E22BFB61A7546BE
:1008780040EA9C005B084FEA3202B6EB020E75EBC9
:10088800030E22BFB61A754640EADC0055EA060E8A
:1008980018D04FEA051545EA16754FEA06164FEACD
:1008A800C30343EA52734FEAC2025FEA1C1CC0D179
:1008B80011F4801F0BD141EA00014FF000004FF006
:1008C800004CB6E711F4801F04BF01430020B4F1C7
:1008D800FD0C88BFBCF5E06F3FF6AFAEB5EB030C7F
:1008E80004BFB6EB020C5FEA500C50F1000041EB7C
:1008F800045170BD0EF0004E4EEA113114EB5C0449
:10090800C2BFD4EB0C0541EA045170BD41F480111B
:100918004FF0000E013C90E645EA060E8DE60CEA23
:10092800135594EA0C0F08BF95EA0C0F3FF43BAF40
:1009380094EA0C0F0AD150EA01347FF434AF95EAF7
:100948000C0F7FF425AF104619462CE795EA0C0FDB
:1009580006D152EA03353FF4FDAE1046194622E7A8
:1009680050EA410618BF52EA43067FF4C5AE50EA82
:1009780041047FF40DAF52EA43057FF4EBAE12E772
:100988004FF0FF3C06E000BF4FF0010C02E000BF53
:100998004FF0010C4DF804CD4FEA410C7FEA6C5C36
:1009A8004FEA430C18BF7FEA6C5C1BD001B050EAD9
:1009B800410C0CBF52EA430C91EA030F02BF90EAC4
:1009C800020F0020704710F1000F91EA030F58BF83
:1009D800994208BF90422CBFD8176FEAE37040F0E5
:1009E800010070474FEA410C7FEA6C5C02D150EA83
:1009F800013C07D14FEA430C7FEA6C5CD6D152EA3E
:100A0800033CD3D05DF8040B704700BF8446104602
:100A180062468C461946634600E000BF01B5FFF701
:100A2800B7FF002848BF10F1000F01BD4DF808EDD1
:100A3800FFF7F4FF0CBF012000205DF808FB00BFA2
:100A48004DF808EDFFF7EAFF34BF012000205DF8FC
:100A580008FB00BF4DF808EDFFF7E0FF94BF012049
:100A680000205DF808FB00BF4DF808EDFFF7CEFF4A
:100A780094BF012000205DF808FB00BF4DF808ED89
:100A8800FFF7C4FF34BF012000205DF808FB00BF5A
:100A98004FEA410C7FEA6C5C02D150EA013C0AD172
:100AA8004FEA430C7FEA6C5C02D152EA033C02D164
:100AB8004FF0000070474FF0010070474FEA4102C5
:100AC800B2F1E04324BFB3F5001CDCF1FE5C0DD9A4
:100AD80001F0004C4FEAC0024CEA5070B2F1004FEE
:100AE80040EB830008BF20F00100704711F0804FF1
:100AF80021D113F13872BCBF01F00040704741F4B6
:100B080080114FEA5252C2F11802C2F1200C10FAB9
:100B18000CF320FA02F018BF40F001004FEAC1239D
:100B28004FEAD32303FA0CFC40EA0C0023FA02F341
:100B38004FEA4303CCE77FEA625307D150EA013317
:100B48001EBF4FF0FE4040F44000704701F00040E7
:100B580040F0FE4040F40000704700BF53B94AB966
:100B6800002908BF00281CBF4FF0FF314FF0FF30AD
:100B780000F07AB9ADF1080C6DE904CE00F006F882
:100B8800DDF804E0DDE9022304B070472DE9F04701
:100B98008C460D460446089E002B51D18A421746C2
:100BA8006DD9B2FA82FEBEF1000F0BD0CEF1200C47
:100BB80001FA0EF520FA0CFC02FA0EF74CEA050CC5
:100BC80000FA0EF44FEA174A250CBCFBFAF81FFA94
:100BD80087F90AFB18CC45EA0C4508FB09F3AB4238
:100BE8000AD9ED1908F1FF3280F02381AB4240F2B7
:100BF8002081A8F102083D44ED1AA4B2B5FBFAF031
:100C08000AFB105544EA054400FB09F9A14509D936
:100C1800E41900F1FF3380F00A81A14540F2078111
:100C280002383C44A4EB090440EA08400021002EA5
:100C380061D024FA0EF4002334607360BDE8F087B5
:100C48008B4207D9002E54D0002186E8210008469F
:100C5800BDE8F087B3FA83F1002940F08E80AB42FB
:100C680002D3824200F2FA80841A65EB0305012060
:100C7800AC46002E3FD086E81010BDE8F08712B9C8
:100C88000127B7FBF2F7B7FA87FEBEF1000F34D1A0
:100C9800EB1B3A0C1FFA87FC0121B3FBF2F8250C79
:100CA80002FB183345EA03450CFB08F3AB4207D9AE
:100CB800ED1908F1FF3002D2AB4200F2D180804634
:100CC800ED1AA3B2B5FBF2F002FB105543EA054456
:100CD8000CFB00FCA44507D9E41900F1FF3302D24C
:100CE800A44500F2B8801846A4EB0C0440EA08407A
:100CF8009DE731463046BDE8F087CEF1200405FA7D
:100D08000EF307FA0EF720FA04F83A0C25FA04F461
:100D180048EA0308B4FBF2F14FEA184502FB114414
:100D28001FFA87FC45EA044501FB0CF3AB4200FAC5
:100D38000EF409D9ED1901F1FF3080F08A80AB4239
:100D480040F2878002393D44EB1A1FFA88F5B3FB5D
:100D5800F2F002FB103345EA034500FB0CF3AB420B
:100D680007D9ED1900F1FF386FD2AB426DD90238BF
:100D78003D44EB1A40EA01418FE7C1F1200722FA0E
:100D880007F88B4005FA01F448EA030320FA07FE46
:100D98004FEA134CFD404EEA040EB5FBFCF94FEA4E
:100DA8001E440CFB19551FFA83F844EA054509FB54
:100DB80008F4AC4202FA01F200FA01FA08D9ED1877
:100DC80009F1FF3043D2AC4241D9A9F102091D44CF
:100DD8002D1B1FFA8EFEB5FBFCF00CFB10554EEADE
:100DE800054400FB08F8A04507D9E41800F1FF35D1
:100DF80029D2A04527D902381C4440EA0940A4EB6F
:100E08000804A0FB02894C45C6464D4615D312D0AE
:100E180056B1BAEB0E0364EB050404FA07F7CB40AE
:100E28001F43CC40376074600021BDE8F087184646
:100E3800F8E69046E0E6C245EAD2B8EB020E69EB66
:100E480003050138E4E72846D7E7404691E781469D
:100E5800BEE7014678E702383C4445E7084608E71C
:100E6800A8F102083D442BE7704700BF30B595B0A4
:100E78003022002108A804F0F9F90024039404940E
:100E880005940694079401941B4B1A6C42F0805207
:100E98001A641B6C03F080530193019B0294174B57
:100EA8001A6842F480421A601B6803F48043029374
:100EB800029B012308934FF48033099302250E9572
:100EC8004FF480030F9306231093D8231193042320
:100ED8001293139308A800F0F7FE0F2303930495C9
:100EE80005944FF4805306930794294603A801F00C
:100EF8004BF915B030BD00BF00380240007000400B
:100F080008B501F0BFFCFFF7B1FF00F017F800F0DB
:100F18008FF900F0DFF800F0A7F900F037FB00F0D8
:100F280045FA02F089FE00F017FA00F067FA02F0BD
:100F3800F5FA02F015FBFCE7704700002DE9F043D5
:100F48008BB000240594069407940894099400949F
:100F58005A4B1A6B42F004021A631A6B02F004022D
:100F68000092009A01941A6B42F080021A631A6B7D
:100F780002F080020192019A02941A6B42F0010277
:100F88001A631A6B02F001020292029A03941A6B16
:100F980042F002021A631A6B02F002020392039AE9
:100FA80004941A6B42F008021A631B6B03F00803DF
:100FB8000493049BDFF8148122464FF40051404605
:100FC80001F087FA3E4F01220321384601F081FAE9
:100FD8003C4E224641F20401304601F07AFA22469C
:100FE8004FF40041384601F074FA012208213046D6
:100FF80001F06FFA4FF40053059301250695079405
:10100800089405A9404601F06FF903230593069556
:1010180007950223089305A9384601F065F941F2BE
:101028000403059306950794089405A9304601F032
:101038005BF94FF400730593DFF89490CDF818909E
:10104800079505A9404601F04FF94FF40043059371
:1010580006950794089405A9384601F045F9042334
:1010680005930694079505A9174801F03DF908234B
:101078000593112306930795089405A9304601F0B6
:1010880033F930230593CDF81890079505A9304614
:1010980001F02AF9224629460A2001F065FB0A20B8
:1010A80001F094FB22462946172001F05DFB17202A
:1010B80001F08CFB0BB0BDE8F08300BF00380240A4
:1010C8000000024000040240000C024000080240F8
:1010D8000000311000B585B00023009301930293FE
:1010E80003931B481B4A026043608360012202612C
:1010F800027680F82030C36217498162C3600223F8
:10110800C36180F83020426100F0DEFBB0B90223F1
:101118000093012301930023029369460C4800F0D1
:101128000BFD70B90E23009302230193694608480A
:1011380000F002FD40B905B05DF804FBFFF7FCFEC6
:10114800E5E7FFF7F9FEEDE7FFF7F6FEF3E700BF87
:10115800EC000020002001400100000F70B588B0AD
:10116800002303930493059306930793026803F1FE
:10117800804303F590339A4201D008B070BD04460D
:101188000025009503F58C335A6C42F480725A643A
:101198005A6C02F480720092009A01951A6B42F020
:1011A80004021A631A6B02F004020192019A029572
:1011B8001A6B42F001021A631B6B03F001030293DE
:1011C800029B332303930326049603A9144801F0D2
:1011D8008BF8042303930496059503A9114801F09D
:1011E80083F81148114B036045608560C5604FF472
:1011F800806303614FF4006343614FF400538361DC
:101208004FF48073C3610562456201F0FDF918B9B6
:10121800054BA3639C63B0E7FFF78EFEF8E700BFBA
:10122800000802400000024034010020106402401F
:1012380082B0002100910B4B1A6B42F480021A63B2
:101248001A6B02F480020092009A01911A6B42F420
:1012580000121A631B6B03F400130193019B02B085
:10126800704700BF0038024008B50E480E4B0360B7
:101278004FF48273436000238360C36003610122DB
:1012880042614FF4007282611022C26103624362BC
:1012980083620A23C36201F0B1FB00B908BDFFF7FE
:1012A8004BFEFBE794010020003C004030B589B0BC
:1012B8000023039304930593069307930268224B34
:1012C8009A4201D009B030BD04460025019503F5C6
:1012D800FE331A6C42F400421A641A6C02F400429B
:1012E8000192019A02951A6B42F004021A631B6B71
:1012F80003F004030293029B4FF4A05303930223C9
:101308000493032306930623079303A90F4800F0C9
:10131800EBFF0F480F4B0360456040238360C560B7
:101328004FF480630361456185614FF48073C36145
:101338000562456201F068F918B9054BA3649C631E
:10134800C0E7FFF7F9FDF8E7003C0040000802405D
:10135800EC0100208860024000B583B000230093B0
:1013680001931048104A026040F2CF224260836025
:1013780042F20F73C3608023836101F041FE50B9CC
:101388000023009301936946064802F049F828B9FA
:1013980003B05DF804FBFFF7CFFDF1E7FFF7CCFDE5
:1013A800F6E700BF8C0200200010004000B583B0B3
:1013B8000023009301930F480F4A026047224260BE
:1013C800836040F2E733C3608023836101F018FE35
:1013D80050B90023009301936946064802F020F8AB
:1013E80028B903B05DF804FBFFF7A6FDF1E7FFF7A6
:1013F800A3FDF6E70C0300200014004008B50A48D6
:101408000A4B0360472343600023836040F2E732BE
:10141800C26003618023836101F0F2FD00B908BD59
:10142800FFF78AFDFBE700BF4C02002000440140A3
:1014380000B585B003682F4A93420BD02E4A9342D9
:101448001CD02E4A93422DD02D4A93423ED005B04F
:101458005DF804FB002200922A4B596C41F001010F
:1014680059645B6C03F001030093009B0121192070
:1014780001F07AF9192001F0A9F9E8E700210191B2
:10148800204B1A6C42F010021A641B6C03F0100314
:101498000193019B0A46362001F066F9362001F0D7
:1014A80095F9D4E700210291164B1A6C42F02002FC
:1014B8001A641B6C03F020030293029B0A46372030
:1014C80001F052F9372001F081F9C0E700220392B8
:1014D8000C4B596C41F4003159645B6C03F40033D4
:1014E8000393039B0121192001F03EF9192001F013
:1014F8006DF9ACE700000140001000400014004006
:10150800004401400038024070B588B000230393BE
:1015180004930593069307930268194B9A4201D0E6
:1015280008B070BD0024019403F59C331A6B42F097
:1015380002021A631A6B02F002020192019A0294E3
:101548001A6B42F001021A631B6B03F0010302934A
:10155800029B4FF4604303930226049601250795E6
:1015680003A9084800F0C0FE4FF4E0630393049613
:1015780005940694079503A9034800F0B5FECFE744
:1015880000000140000402400000024010B596B07F
:10159800002412941394149415941094119409949B
:1015A8000A940B940C940D940E940F9420222146C7
:1015B80001A803F05BFE3748374B036047234360BD
:1015C80084603E23C360046144618023836101F029
:1015D80017FD002846D116A94FF4805341F8103D55
:1015E8002C4801F0F3FD00283FD12A4801F021FDE5
:1015F80000283DD100231093119310A9254801F02C
:101608000FFF002837D16023099300220A920B921A
:101618000C920D920E920F9209A91E4801F05CFDE2
:1016280060BB042209A91B4801F056FD48BB0822EB
:1016380009A9184801F050FD30BB0023019302931B
:1016480003930222049205934FF4005206920893E2
:1016580001A9104801F028FFC8B90E48FFF754FF48
:1016680016B010BDFFF768FCB5E7FFF765FCBCE7EF
:10167800FFF762FCBEE7FFF75FFCC4E7FFF75CFC1F
:10168800CFE7FFF759FCD2E7FFF756FCD5E7FFF79E
:1016980053FCE2E7CC020020000001407047FEE75F
:1016A800FEE7FEE7FEE770477047704708B501F0B0
:1016B80003F908BD08B5102000F01CFF02F0DCF8A3
:1016C80002F022F908BD000008B5034802F0DAFD6F
:1016D80002F074FA08BD00BFC804002008B5202035
:1016E80000F008FF4FF4007000F004FF02F0C4F8A7
:1016F80002F00AF908BD000008B5034801F05CFBD8
:10170800024801F059FB08BDCC0200204C02002021
:1017180008B5074801F050FB02F0D2F802F0DCF8F7
:10172800044B1B7813B10022034B1A7008BD00BF8D
:101738008C020020940000200804002008B5064808
:1017480001F03AFB02F032F903F046F802F050FAE1
:1017580002F0C2F808BD00BF0C03002082B00021CF
:1017680000910B4B5A6C42F480425A645A6C02F452
:1017780080420092009A01911A6C42F080521A64D9
:101788001B6C03F080530193019B02B0704700BFAC
:10179800003802404A4B5A6822F440325A605A686C
:1017A80041680A435A600268536823F4807353609F
:1017B80002685368016943EA012353600268536869
:1017C80023F0407353600268536881680B43536089
:1017D8000268936823F40063936002689368C168A1
:1017E8000B439360826A374B9A424BD002689368E6
:1017F80023F07063936002689368816A0B43936077
:101808000268936823F04053936002689368C16A42
:101818000B4393600268936823F0020393600268A5
:101828009368017E43EA4103936090F82030002BCF
:1018380033D10268536823F4006353600268D36AA3
:1018480023F47003D3620168CB6AC269013A43EAA0
:101858000253CB620268936823F4007393600268B2
:10186800936890F8301043EA4123936002689368C4
:1018780023F48063936002689368416943EA812393
:10188800936070470268936823F0706393600268FE
:10189800936823F040539360BCE70268536843F4AD
:1018A800006353600268536823F46043536001681F
:1018B8004B68426A013A43EA42334B60BEE700BFD5
:1018C800002301400100000F38B310B50446036C33
:1018D80043B1236C13F0100F0BD00120002384F8C0
:1018E8003C3010BDFFF73AFC0023636484F83C30B9
:1018F800EFE7236C23F4885323F0020343F0020339
:1019080023642046FFF746FF00206064236C23F021
:10191800030343F001032364E0E70120704700005C
:1019280030B583B00023019390F83C30012B00F0D0
:101938009B80012380F83C3003689C6814F0010FF9
:1019480013D19C6844F001049C604D4B1C684D4BBE
:10195800A3FB0434A40C04EB4404019402E0019CAE
:10196800013C0194019C002CF9D103689C6814F097
:10197800010F7CD0046C24F4E06424F0010444F4E6
:10198800807404645B6813F4806F05D0036C23F4DF
:10199800405343F480530364036C13F4805F38D0DE
:1019A800436C23F00603436413460446002280F880
:1019B8003C20826B3448D063A26B34481064A26B1D
:1019C8003348D06422686FF0220010602568686888
:1019D80040F0806068602568A86840F48070A8605E
:1019E80020680A4600F14C01A06B00F075FE294BF7
:1019F8005B6813F01F0F27D12368274A934219D039
:101A080002F58072934207D0244A93420BD00020FB
:101A18002BE000234364C7E702F50072526812F016
:101A28001F0F07D0F0E702F58072526802F01F021C
:101A38000F2A1ED89A6812F0405F1CD19A6842F0AB
:101A480080429A60002010E02368134A934201D034
:101A580000200AE09A6812F0405F0ED19A6842F0BE
:101A680080429A60002000E0022003B030BD0020D0
:101A7800FBE70020F9E70020F7E70020F5E700BFC3
:101A88000800002083DE1B43CF1A0008AD1A0008A7
:101A9800B91A00080023014000200140002201403B
:101AA8007047704708B5806BFFF7FBFF08BD7047AC
:101AB80008B5806B40230364436C43F0040343641C
:101AC800FFF7F5FF08BD08B5836B1A6C12F0500FCD
:101AD80026D11A6C42F400721A641A68916811F0DF
:101AE800405F19D1197EB9B9D16A11F4700F03D0CA
:101AF800916811F4806F0FD1516821F02001516075
:101B08001A6C22F480721A641A6C12F4805F03D182
:101B18001A6C42F001021A641846FFF7C1FF08BDAB
:101B28001A6C12F0100F03D19B6BDB6C984708BD41
:101B38001846FFF7BCFF08BD30B482B000230193FC
:101B480090F83C30012B00F0B780012380F83C303E
:101B58000B68092B3ED90568EA689BB203EB43037F
:101B68001E3B072404FA03F322EA0303EB6005682B
:101B7800EA688C680B8803EB43031E3B04FA03F303
:101B88001343EB604B68062B3AD805686A6B03EB86
:101B98008303053B1F2404FA03F322EA03036B6360
:101BA80005686A6B4B6803EB8303053B0C8804FAF2
:101BB80003F313436B630268404B9A4250D00268A8
:101BC8003E4B9A4255D0002380F83C30184602B06C
:101BD80030BC704705682A699BB203EB43030724AE
:101BE80004FA03F322EA03032B6105682A698C6867
:101BF8000B8803EB430304FA03F313432B61C1E798
:101C08000C2B16D805682A6B03EB8303233B1F2490
:101C180004FA03F322EA03032B6305682A6B4B6873
:101C280003EB8303233B0C8804FA03F313432B636E
:101C3800C1E70568EA6A03EB8303413B1F2404FA02
:101C480003F322EA0303EB620568EA6A4B6803EBD5
:101C58008303413B0C8804FA03F31343EB62AAE7BE
:101C68000B68122BABD1164A536843F480035360B8
:101C7800A5E70B68103B012BA5D8114A536843F41C
:101C8800000353600B68102B9DD10E4B1B6802F1AB
:101C9800467202F52E3202F28332A2FB03239B0C1A
:101CA80003EB83035A00019202E0019B013B01937D
:101CB800019B002BF9D186E7022088E7002001402C
:101CC8000023014008000020002800F0E48170B5DE
:101CD80082B00446036813F0010F3BD0A74B9B6802
:101CE80003F00C03042B2CD0A44B9B6803F00C03CB
:101CF800082B21D06368B3F5803F4FD0B3F5A02FF0
:101D080052D09E4B1A6822F480321A601A6822F464
:101D180080221A606368002B50D000F0D9FD054678
:101D2800964B1B6813F4003F14D100F0D1FD401B03
:101D38006428F5D90320B3E1904B5B6813F4800F56
:101D4800D8D08E4B1B6813F4003F03D06368002B78
:101D580000F0A381236813F0020F55D0874B9B68CE
:101D680013F00C0F3ED0854B9B6803F00C03082B37
:101D780033D0E368002B68D00122814B1A6000F051
:101D8800A7FD05467D4B1B6813F0020F54D100F0E8
:101D98009FFD401B0228F5D9032081E1774A13688B
:101DA80043F480331360B5E7744B1A6842F4802219
:101DB8001A601A6842F480321A60ABE700F088FDB6
:101DC80005466E4B1B6813F4003FC3D000F080FD3E
:101DD800401B6428F5D9032062E1684B5B6813F463
:101DE800800FC6D1654B1B6813F0020F04D0E3685F
:101DF800012B01D0012053E1604A136823F0F80356
:101E0800216943EAC1031360236813F0080F40D027
:101E1800636963B301225B4B1A6000F059FD054604
:101E2800564B5B6F13F0020F33D100F051FD401B8E
:101E38000228F5D9032033E1504A136823F0F80348
:101E4800216943EAC1031360DEE700224C4B1A60A4
:101E580000F03EFD0546494B1B6813F0020FD3D036
:101E680000F036FD401B0228F5D9032018E10022B6
:101E7800444B1A6000F02CFD0546404B5B6F13F095
:101E8800020F06D000F024FD401B0228F5D90320DC
:101E980006E1236813F0040F79D0384B1B6C13F05C
:101EA800805F33D100230193344B1A6C42F0805287
:101EB8001A641B6C03F080530193019B0125324B7C
:101EC8001B6813F4807F23D0A368012B34D0052B23
:101ED80038D02A4B1A6F22F001021A671A6F22F0C3
:101EE80004021A67A368002B36D000F0F1FC0646FE
:101EF800224B1B6F13F0020F48D100F0E9FC801B46
:101F080041F288339842F3D90320C9E00025D6E787
:101F18001D4A136843F48073136000F0D9FC064629
:101F2800194B1B6813F4807FCED100F0D1FC801BC5
:101F38000228F5D90320B3E0104A136F43F00103D8
:101F48001367CFE70D4B1A6F42F004021A671A6F36
:101F580042F001021A67C5E700F0BAFC0646074BD3
:101F68001B6F13F0020F11D000F0B2FC801B41F27E
:101F780088339842F3D9032092E000BF003802402A
:101F880000004742800E474200700040EDB9A36947
:101F9800002B00F08480454A926802F00C02082A5F
:101FA80051D0022B17D00022414B1A6000F090FC50
:101FB80004463E4B1B6813F0007F42D000F088FCBB
:101FC800001B0228F5D903206AE0384A136C23F075
:101FD80080531364DBE70022354B1A6000F078FC6D
:101FE8000546324B1B6813F0007F06D000F070FCEA
:101FF800401B0228F5D9032052E0E369226A134303
:10200800626A43EA8213A26A5208013A43EA024327
:10201800E26A43EA0263254A53600122244B1A60AC
:1020280000F056FC0446214B1B6813F0007F06D1D4
:1020380000F04EFC001B0228F5D9032030E00020F8
:102048002EE000202CE0012B2CD0184B9B6803F4C9
:102058008001E269914201D0012021E003F03F02B2
:10206800216A8A4201D001201AE0616A47F6C072EB
:102078001A408A4201D0012012E003F44032A16ADA
:102088008A4201D001200BE003F07063E26A9342B8
:102098000AD0012004E001207047012000E0002060
:1020A80002B070BD0120FBE70020F9E700380240CC
:1020B80060004742F8B5314B9B6803F00C03042BD2
:1020C80059D0082B01D02E48F8BD2C4B5A6802F085
:1020D8003F025B6813F4800F2AD0284B5B68C3F378
:1020E80088131E4600275C010025E41A65EB0705E6
:1020F800A90141EA9461A001001B61EB0501CB0035
:1021080043EA5073C400A01943EB07014B0243EAAA
:10211800D0534402204619460023FEF71FFD174BF3
:102128005B68C3F3014301335B00B0FBF3F0F8BD18
:10213800124B5B68C3F388131E4600275C01002519
:10214800E41A65EB0705A90141EA9461A001001BA7
:1021580061EB0501CB0043EA5073C400A01943EBBF
:1021680007018B0243EA9053840220461946002354
:10217800FEF7F4FCD3E70348F8BD00BF003802407F
:102188000024F40000127A00002800F09E8070B548
:102198000446504B1B6803F00F038B4209D2CBB2A5
:1021A8004C4A1370136803F00F03994201D00120C1
:1021B80070BD236813F0020F17D013F0040F04D07A
:1021C800454A936843F4E0539360236813F0080F7B
:1021D80004D0414A936843F4604393603E4A93684D
:1021E80023F0F003A068034393600D46236813F0BF
:1021F800010F32D06368012B21D09A1E012A25D9FC
:10220800354A126812F0020F61D033498A6822F009
:10221800030213438B6000F05BFB06462E4B9B6862
:1022280003F00C036268B3EB820F16D000F050FB8A
:10223800801B41F288339842F0D9032070BD264AAA
:10224800126812F4003FE0D1012070BD224A1268E2
:1022580012F0007FD9D1012070BD1E4B1B6803F01E
:102268000F039D4209D2EAB21A4B1A701B6803F099
:102278000F039D4201D0012070BD236813F0040FA5
:1022880006D0154A936823F4E053E1680B43936042
:10229800236813F0080F07D00F4A936823F46043AC
:1022A800216943EAC1039360FFF704FF0A4B9B6867
:1022B800C3F30313094AD35CD840094B1860094B90
:1022C800186800F0B9FA002070BD0120704701209D
:1022D80070BD00BF003C024000380240F8680008AA
:1022E800080000200400002000230F2B00F2DF80EC
:1022F800F0B583B050E04FEAD30C0CF1080C50F85D
:102308002C5003F0070E4FEA8E0E0F2606FA0EF633
:1023180025EA06050E6906FA0EF6354340F82C50F4
:102328006FE0072600E0002606FA0EF63543023273
:102338005F4E46F822505F4A1568E24305EA0206F6
:102348004F6817F4803F01D044EA0506594D2E60C6
:102358006D6802EA05064F6817F4003F01D044EAA9
:102368000506544D6E60AD6802EA05064F6817F41D
:10237800801F01D044EA05064E4DAE60ED682A4044
:102388004E6816F4001F01D044EA0502494CE26089
:1023980001330F2B00F2898001229A400C68144007
:1023A800A242F5D14D686E1E012E03D9112D01D020
:1023B800122D15D185684FEA430E032707FA0EF749
:1023C80025EA0705CE6806FA0EF6354385604568A6
:1023D80025EA02024D68C5F300159D402A43426074
:1023E800C6685F000322BA40D24316408D68BD40DC
:1023F8002E43C6604D68022D3FF47DAF122D3FF489
:102408007AAF05682A404D6805F00305BD402A43A8
:1024180002604A6812F0805FBAD000220192264A10
:10242800556C45F480455564526C02F48042019223
:10243800019A9A08961C1E4D55F8265003F003067B
:102448004FEA860E0F2606FA0EF625EA06051B4FFA
:10245800B8423FF468AF1A4EB0421AD006F580660B
:10246800B04218D006F58066B04216D006F58066F0
:10247800B04214D006F58066B04212D006F58066E8
:10248800B04210D006F58066B0423FF44AAF082645
:102498004AE7012648E7022646E7032644E70426DA
:1024A80042E7052640E706263EE703B0F0BD704741
:1024B80000380140003C0140003802400000024062
:1024C800000402400369194201D10020704701202D
:1024D800704712B909048161704781617047436987
:1024E80031EA030301D081617047090481617047B3
:1024F8007047000008B5054B5B69034200D108BD71
:10250800024B5861FFF7F4FFF9E700BF003C0140B8
:1025180030B405682C6824F480242C600468636057
:102528008368402B05D0036899600368DA6030BC83
:10253800704703689A600368D960F8E70268D3B205
:10254800103B0B49A1FB03131B090A49C95CC16570
:10255800032B06D822F47F7222F003028265806D75
:10256800704722F47F7222F0030204328265F6E794
:10257800ABAAAAAAF0680008836A826992B9012BFB
:102588000AD01BB1022B01D000207047C36A13F098
:10259800807F2CD100207047C36AB3F1C07F28D058
:1025A80000207047B2F5005F05D0022B29D9032B14
:1025B80015D000207047032B03D8DFE803F01C0474
:1025C8001C0A00207047C36A13F0807F15D10020D1
:1025D8007047C36AB3F1C07F11D000207047C36A47
:1025E80013F0807F01D00120704700207047012040
:1025F8007047012070470120704701207047012073
:10260800704701207047000070B5044600F060F97B
:10261800002C5DD00546002384F83430022384F86A
:1026280035302268136823F00103136023681A68A1
:1026380012F0010F0AD000F04BF9401B0528F5D91C
:1026480020236365032084F8350070BD1A6821498A
:1026580011406268A0680243E068024320690243AF
:1026680060690243A0690243E0690243206A0243A9
:102678000A43616A042916D01A602668756925F02C
:102688000705636A1D43042B12D075612046FFF7C6
:1026980055FFE26D3F23934083600020606501236E
:1026A80084F8353070BDE16A206B01430A43E3E7E3
:1026B800A36A1D43E36A002BE7D02046FFF75CFFBF
:1026C8000028E2D040236365012084F8350070BDFE
:1026D800012070BD3F8010F038B5856D90F834400A
:1026E800012C2CD0012480F8344090F83540E4B215
:1026F800012C04D0002380F83430022038BD044671
:10270800022084F83500002060652046FFF700FFAE
:10271800E26D3F239340AB602268136843F01603D1
:102728001360236C23B12268136843F00803136015
:102738002268136843F001031360002038BD0220AB
:1027480038BD0000074AD36823F4E0631B041B0C60
:10275800000200F4E060184340F0BF6040F400302D
:10276800D060704700ED00E030B4164BDB68C3F36F
:102778000223C3F10704042C28BF04241D1D062DC1
:1027880017D9033B012505FA04F4013C214099407F
:1027980005FA03F3013B1340194300280BDB090139
:1027A800C9B200F1604000F5614080F8001330BC08
:1027B80070470023E6E700F00F000901C9B2024B99
:1027C8001954F4E700ED00E014ED00E0002808DB00
:1027D800420900F01F00012303FA00F0014B43F8FF
:1027E8002200704700E100E0BFF34F8F0549CA6837
:1027F80002F4E062044B1343CB60BFF34F8F00BF7A
:10280800FDE700BF00ED00E00400FA050138B0F173
:10281800807F0AD2064B5860F021064A82F82310BE
:102828000020986007221A6070470120704700BF97
:1028380010E000E000ED00E010B504460E4B1878FB
:102848004FF47A73B3FBF0F30C4A1068B0FBF3F063
:10285800FFF7DCFF68B90F2C01D9012010BD002259
:1028680021464FF0FF30FFF77FFF054B1C6000202B
:1028780010BD012010BD00BF00000020080000208E
:102888000400002008B50B4B1A6842F400721A6065
:102898001A6842F480621A601A6842F480721A60F8
:1028A8000320FFF74FFF0020FFF7C6FFFEF756FF94
:1028B800002008BD003C0240034A1168034B1B7806
:1028C8000B441360704700BF4C0300200000002039
:1028D800014B1868704700BF4C03002038B5044608
:1028E800FFF7F6FF0546B4F1FF3F02D0044B1B7813
:1028F8001C44FFF7EDFF401B8442FAD838BD00BFE7
:1029080000000020F8B505460F4616461C462B6801
:102918009B6837EA03030CBF01230023B34237D077
:10292800B4F1FF3FF3D0FFF7D3FF069BC01A8442F0
:1029380001D9002CEBD12A68536823F0E0035360D7
:102948006B68B3F5827F0BD0AB6AB3F5005F14D028
:10295800012385F85130002385F850300320F8BD55
:10296800AB68B3F5004F02D0B3F5806FECD12A689D
:10297800136823F040031360E6E72A68136823F41A
:10298800005313602A68136843F400531360DFE7A9
:102998000020F8BD30B585B0164C2468164DA5FB4F
:1029A8000434640D4FF47A7505FB04F40394446809
:1029B800B4F5827F0BD0039BC3B1039B013B039308
:1029C80003689B6813F0800FF5D100230FE00B46D6
:1029D8000446009200228021FFF794FF034630B19D
:1029E800636D43F020036365032300E0002318466A
:1029F80005B030BD08000020819F5E1600283BD03E
:102A080010B504460023836290F85130002B2ED075
:102A1800022384F851302268136823F040031360BE
:102A280022686368A1680B43E1680B4321690B4383
:102A380061690B43A16901F400710B43E1690B4320
:102A4800216A0B43A16A0B4313602268638B03F06E
:102A58000403616A0B4353602268D36923F400635B
:102A6800D36100206065012384F8513010BD80F8DF
:102A78005030FEF71BFCCBE70120704790F8503030
:102A8800012B60D010B50446012380F8503090F82F
:102A98005130DBB2012B05D00223002284F85020EC
:102AA800184610BD00294AD0002A4AD0032380F8CE
:102AB80051300023436501638286C2868363436481
:102AC80003648387C3878368B3F5004F1DD0A36C65
:102AD8001E4A1A64A36C1E4ADA63A36C1D4ADA64A0
:102AE800A36C00221A652268E38E9BB20C32216B1C
:102AF800A06CFFF7F1FD034668B1636D43F0100366
:102B08006365012384F85130C7E70268136843F40A
:102B180080431360DBE72268116811F0400F03D18E
:102B2800116841F04001116021684A6842F02002B2
:102B38004A6021684A6842F002024A60ADE7012310
:102B4800ABE70123A9E7022318467047652B000865
:102B5800932B0008712B00087047704708B5806BED
:102B6800FFF7FBFF08BD704708B5806B0268536824
:102B780023F003035360436D43F0100343650123BF
:102B880080F85130FFF7EFFF08BD30B583B0054638
:102B9800846BFFF79DFE2B681B6813F4807F23D19D
:102BA8002268536823F0200353602268536823F097
:102BB80002035360024664212046FFF7EBFE18B17A
:102BC800636D43F020036365A36833B901932368F9
:102BD800DA6801929B680193019B0023E386012335
:102BE80084F85130636D23B92046FFF7B5FF03B071
:102BF80030BD2046FFF7B7FFF9E7000030B4036A9D
:102C080023F001030362036A4468826922F07302B5
:102C18000D682A4323F002038D682B43114DA84207
:102C280011D005F58065A8420DD00E4DA84211D0EF
:102C380005F58065A8420DD0446082614A68426308
:102C4800036230BC704723F00803CD682B4323F0A0
:102C58000403EAE724F440744D692C438D692C433E
:102C6800EAE700BF0000014030B4036A23F4807330
:102C78000362036A4468C26922F073020D682A433A
:102C880023F400738D6843EA0523134DA84211D03D
:102C980005F58065A8420DD00F4DA84212D005F564
:102CA8008065A8420ED04460C2614A68C26303626C
:102CB80030BC704723F40063CD6843EA052323F44E
:102CC8008063E9E724F440544D6944EA05148D69AA
:102CD80044EA0514E7E700BF0000014030B4036A86
:102CE80023F480530362036A4468C26922F4E6420B
:102CF8000D6842EA052223F400538D6843EA053340
:102D0800094DA8420AD005F58065A84206D044605E
:102D1800C2614A680264036230BC704724F480448C
:102D28004D6944EA8514F2E70000014010B4036AD3
:102D3800046A24F001040462846924F0F00444EA7B
:102D4800021223F00A030B43826103625DF8044B0D
:102D5800704710B4036A23F0100303628469036A9E
:102D680024F4704444EA023223F0A00343EA011336
:102D7800826103625DF8044B7047836823F0700337
:102D8800194341F00701816070470268D36843F036
:102D98000103D3600268936803F00703062B03D08E
:102DA800136843F0010313600020704770477047B1
:102DB800704770477047704710B5044603681A6932
:102DC80012F0020F11D0DA6812F0020F0DD06FF076
:102DD80002021A610123037703689B6913F0030F4A
:102DE80070D0FFF7E6FF0023237723681A6912F0F3
:102DF800040F12D0DA6812F0040F0ED06FF004023C
:102E08001A610223237723689B6913F4407F5FD0FC
:102E18002046FFF7CEFF0023237723681A6912F0B4
:102E2800080F12D0DA6812F0080F0ED06FF00802FF
:102E38001A61042323772368DB6913F0030F4ED04C
:102E48002046FFF7B6FF0023237723681A6912F09C
:102E5800100F12D0DA6812F0100F0ED06FF01002B7
:102E68001A61082323772368DB6913F4407F3DD078
:102E78002046FFF79EFF0023237723681A6912F084
:102E8800010F03D0DA6812F0010F36D123681A69EE
:102E980012F0800F03D0DA6812F0800F34D1236863
:102EA8001A6912F0400F03D0DA6812F0400F32D1DD
:102EB80023681A6912F0200F03D0DA6812F0200F85
:102EC80030D110BDFFF774FF2046FFF773FF8AE784
:102ED8002046FFF76DFF2046FFF76CFF9BE7204673
:102EE800FFF766FF2046FFF765FFACE72046FFF7D0
:102EF8005FFF2046FFF75EFFBDE76FF001021A6132
:102F08002046FFF754FFC1E76FF080021A612046A0
:102F180000F0F4FAC3E76FF040021A612046FFF7A9
:102F28004AFFC5E76FF020021A61204600F0E5FA73
:102F3800C7E700000368314A904212D0B0F1804FD1
:102F48000FD0A2F57C4290420BD002F580629042ED
:102F580007D002F58062904203D002F57842904291
:102F680003D123F070034A681343244A90422AD0BD
:102F7800B0F1804F27D0A2F57C42904223D002F5D1
:102F8800806290421FD002F5806290421BD002F509
:102F98007842904217D002F57052904213D002F551
:102FA800806290420FD002F5806290420BD0A2F569
:102FB8009832904207D002F58062904203D002F521
:102FC8008062904203D123F44073CA68134323F00C
:102FD80080034A69134303608B68C3620B6883628A
:102FE800064B984206D003F58063984202D001232D
:102FF800436170470B690363F9E700BF00000140B4
:10300800A8B110B5044690F83D305BB1022384F8AE
:103018003D30211D2068FFF78DFF012384F83D30E6
:10302800002010BD80F83C30FEF702FAEEE70120E0
:103038007047A8B110B5044690F83D305BB1022343
:1030480084F83D30211D2068FFF774FF012384F8C0
:103058003D30002010BD80F83C30FFF7A7FEEEE7BA
:103068000120704730B4036A23F010030362036A37
:103078004468826922F4E6420D6842EA052223F098
:1030880020038D6843EA0513124DA84211D005F5B7
:103098008065A8420DD00F4DA84212D005F5806575
:1030A800A8420ED0446082614A688263036230BCE1
:1030B800704723F08003CD6843EA051323F04003EB
:1030C800E9E724F440644D6944EA85048D6944EADB
:1030D8008504E7E70000014038B590F83C30012B43
:1030E80066D00D460446012380F83C30022380F860
:1030F8003D300C2A1AD8DFE802F0071919192019EF
:1031080019193419191947000068FFF777FD226863
:10311800936943F0080393612268936923F00403D9
:1031280093612268936929690B439361012384F8A9
:103138003D30002084F83C0038BD0068FFF792FF5E
:103148002268936943F4006393612268936923F4C6
:103158008063936122689369296943EA0123936133
:10316800E4E70068FFF780FD2268D36943F00803AD
:10317800D3612268D36923F00403D3612268D36939
:1031880029690B43D361D1E70068FFF7A7FD2268DF
:10319800D36943F40063D3612268D36923F480635D
:1031A800D3612268D369296943EA0123D361BDE762
:1031B800022038BD10B4846824F47F4442EA032313
:1031C80019430C4384605DF8044B704790F83C3019
:1031D800012B66D010B50446012380F83C30022349
:1031E80080F83D300268936823F47F4323F0770327
:1031F80093600B68402B4AD013D9602B3DD01ED961
:10320800702B28D0B3F5005F30D1CB684A68896845
:103218000068FFF7CFFF2268936843F48043936008
:1032280024E0102B06D004D9202B03D0302B01D05A
:103238001CE0DBB919462068FFF79FFD16E0502B0C
:1032480014D1CA6849680068FFF770FD50212068EA
:10325800FFF793FD0AE0CB684A6889680068FFF7C2
:10326800A9FF2268936843F077039360012384F8E9
:103278003D30002084F83C0010BDCA6849680068E9
:10328800FFF767FD60212068FFF777FDEEE7CA6862
:1032980049680068FFF74AFD40212068FFF76DFD87
:1032A800E4E70220704710B401F01F01012303FA7C
:1032B80001F4036A23EA04030362036A8A4013439E
:1032C80003625DF8044B704710B50446012200689C
:1032D800FFF7E9FF23680E4A934217D002F5806290
:1032E800934211D000221AB15A6C42F400425A6437
:1032F8002268936803F00703062B03D0136843F092
:1033080001031360002010BD0122ECE70122EAE767
:103318000000014010B5044600220068FFF7C3FF13
:103328002368174A934229D002F58062934223D03A
:1033380000226AB1196A41F21112114208D1196AC0
:1033480040F24442114203D15A6C22F400425A64BA
:103358002368196A41F21112114208D1196A40F220
:103368004442114203D11A6822F001021A60012373
:1033780084F83D30002010BD0122DAE70122D8E7A9
:103388000000014010B401F01F01042303FA01F406
:10339800036A23EA04030362036A8A40134303624D
:1033A8005DF8044B704710B5044604220068FFF727
:1033B800E9FF2268536C43F400435364226893681E
:1033C80003F00703062B03D0136843F001031360CF
:1033D800002010BD10B5044600220068FFF7D2FF98
:1033E8002368196A41F21112114208D1196A40F290
:1033F8004442114203D15A6C22F400425A642368B1
:10340800196A41F21112114208D1196A40F2444274
:10341800114203D11A6822F001021A60002010BD7F
:1034280090F83C30012B3BD030B4012380F83C307D
:10343800022380F83D3004686368A26823F07003B3
:103448000D682B4363600368164CA3421AD0B3F18E
:10345800804F17D0A4F57C44A34213D004F58064B0
:10346800A3420FD004F58064A3420BD004F578443E
:10347800A34207D004F57054A34203D0A4F59434B2
:10348800A34204D122F0800249680A439A600123CA
:1034980080F83D30002380F83C30184630BC704737
:1034A800022070470000014090F83C30012B22D0E8
:1034B800012380F83C30CB6823F440738A681343B7
:1034C80023F480634A68134323F400630A681343B0
:1034D80023F480530A69134323F400534A691343BE
:1034E80023F48043CA69134302685364002380F8B5
:1034F8003C301846704702207047704770470000FC
:10350800054BD3F8882042F47002C3F888204FF0A6
:1035180000629A60704700BF00ED00E008B501F056
:10352800D9FD01F057FD0028FBD100F0B7FA01F0F2
:10353800EBF80848FFF729FC074B1B78032BFBD156
:1035480000F0CCFF01F087FA0022044B1A7000F05B
:1035580073F908BD0C030020B60000200804002001
:1035680008B501F077FD48B101F0C0FD01F0B8FAE7
:1035780001F004FE0120FFF7B1F908BD01F030F8B1
:103588006420FFF7ABF9FFF72FF9EDE710B510212D
:103598000E48FEF797FF01280FD0002420210B4882
:1035A800FEF790FF01280AD04FF400710848FEF793
:1035B80089FF012806D0204610BD0124EEE744F01B
:1035C8000404F1E744F00204F5E700BF00040240F8
:1035D8000008024010B5022847D0032800F0828076
:1035E800012806D05E4B1B6800225A639A63DA638F
:1035F80010BD01290CD0C1B10229F9D1584C0021C4
:103608002046FFF787FE00212046FFF7E3FE10BDA6
:10361800534C00212046FFF757FE00212046FFF7B4
:10362800C2FE236800225A6310BD4D4C2046FFF7A6
:103638004BFE00212046FFF7B6FE2268494B93F95E
:103648000130002BB8BF5B4207EE903AB8EEE77A3C
:10365800DFED456AC7EE267A9FED447A67EE877AF2
:10366800FCEEE77AC2ED0D7A10BD01290CD0C1B18C
:103678000229BDD13A4C04212046FFF74BFE042114
:103688002046FFF7A7FE10BD354C04212046FFF762
:103698001BFE04212046FFF786FE236800229A635A
:1036A80010BD2F4C04212046FFF70EFE04212046B2
:1036B800FFF779FE22682B4B93F90130002BB8BF36
:1036C8005B4207EE903AB8EEE77ADFED276AC7EE7D
:1036D800267A9FED267A67EE877AFCEEE77AC2EDC6
:1036E8000E7A10BD01290CD0C1B1022980D11C4C21
:1036F80008212046FFF70EFE08212046FFF76AFE44
:1037080010BD174C08212046FFF7DEFD0821204692
:10371800FFF749FE23680022DA6310BD104C082128
:103728002046FFF7D1FD08212046FFF73CFE22681E
:103738000C4B93F90130002BB8BF5B4207EE903A6F
:10374800B8EEE77ADFED086AC7EE267A9FED077ACA
:1037580067EE877AFCEEE77AC2ED0F7A10BD00BFFC
:10376800CC020020080400200000C84200007C426F
:1037780008B506285FD8DFE800F004111E2B38458D
:10378800520002210120FFF725FF02210846FFF71A
:1037980021FF02210320FFF71DFF08BD00210120A2
:1037A800FFF718FF01210220FFF714FF0221032071
:1037B800FFF710FF08BD02210120FFF70BFF0121D1
:1037C8000220FFF707FF00210320FFF703FF08BDD2
:1037D80001210846FFF7FEFE02210846FFF7FAFE20
:1037E80000210320FFF7F6FE08BD01210846FFF778
:1037F800F1FE00210220FFF7EDFE02210320FFF772
:10380800E9FE08BD02210120FFF7E4FE00210220A5
:10381800FFF7E0FE01210320FFF7DCFE08BD0021D1
:103828000120FFF7D7FE02210846FFF7D3FE01214A
:103838000320FFF7CFFE08BD08B501224FF48051E1
:103848000948FEF746FE9FED092AF0EE422ADFED11
:10385800081AB2EE0E1AF0EE410ABAEE0E0A054840
:1038680000F0C1F808BD00BF0004024000000000DD
:1038780033333340D003002008B5FFF787FE0D4BE4
:1038880018700D4B93F90130002B02DC002B09DB7B
:1038980008BDFFF77BFEC0F10700084B185CFFF777
:1038A80067FF08BDFFF772FE044B185CFFF760FF67
:1038B800EEE700BFC60300200804002008690008DE
:1038C80003488168034A1368CB1A43801160704724
:1038D800080400209800002008B50A4B93F901302D
:1038E8001BB9084AB2F902202AB9064AB2F90220DD
:1038F80002B923B908BD0020FFF73AFF08BDFFF75A
:10390800BBFFF7E70804002008B5FFF73FFE234B8D
:103918001B5C012B0ED0062B17D0214A12781F49A9
:103928008A5C93421CD893421ED21E4A9368013B7C
:10393800936019E01A4A127818498A5C062AEAD173
:10394800184A9368013393600EE0154A12781349B8
:103958008A5C012AE1D1134A9368013B936003E032
:10396800104A9368013393600D4B18700D488168B5
:103978000D4B83FB01235A18CB17C3EB6213C3EB20
:1039880003139A008B1A07EE903AF8EEE77AB1EE35
:10399800087A67EE877AC0ED037A08BD08690008DF
:1039A800950000200804002089888888024B93F934
:1039B80000205A70704700BF08040020D0ED007A3C
:1039C800F4EEC07AF1EE10FA01DD80ED000AD0EDD8
:1039D800007AB1EE400AF4EEC07AF1EE10FA01D5A1
:1039E80080ED000A704780ED0D1A80ED0B0AC0EDDE
:1039F8000C0AC0ED001A80ED012AC0ED022A7047BA
:103A080010B5044680ED040AC0ED030A70EEC00A42
:103A1800C0ED060AD0ED007A60EEA77AC0ED077A0D
:103A2800D0ED017A20EEA77AD0ED087A77EE877A82
:103A3800C0ED087AD0ED027A90ED050A70EEC00A62
:103A480067EEA00AC0ED090A90ED0D0A2030FFF7D5
:103A5800B5FFD4ED077A94ED087A77EE877A94ED7E
:103A6800097A77EE877AC4ED0A7A94ED0C7AF4EE47
:103A7800C77AF1EE10FA09DC94ED0B7AF4EEC77A06
:103A8800F1EE10FA04D584ED0A7A01E084ED0A7AA1
:103A9800A369636194ED0A0A10BD000010B58AB0ED
:103AA80044F22003009344F24003019344F260037C
:103AB80002934FF481430393002304930593012257
:103AC80006920793089209936946084800F0BAF9E4
:103AD80048B9064C204600F04BFA0221204600F077
:103AE800B2FB0AB010BDFDF727FAF2E7C8040020C0
:103AF8000023032B12D810B45A00D018C10008486C
:103B0800405E0849041201F8134001328854013319
:103B1800DBB2032BF0D95DF8044B7047704700BF48
:103B280054040020B80400200E4B1A899B8AD31A2B
:103B380041F288318B4204DD0A48B0F9121001398C
:103B4800418209498B4204DA0649B1F9123001333E
:103B58004B82044BB3F9121002EB413159609A823F
:103B6800704700BF5404002078ECFFFF70B5104B7D
:103B78001B78013BDBB20F4A1178547844EA0124E0
:103B88000D4D5800C618F10029440C819678D47858
:103B980044EA06244C811679547944EA0624CC81F7
:103BA800D1790344DA00AB181974FFF7BDFF70BD73
:103BB80038040020C00400205404002008B5002167
:103BC800074800F02DFB10B9FFF7D0FF08BD054BE3
:103BD800054A0021024800F089FA044B1870F3E7FF
:103BE800C8040020C004002038040020B4040020C9
:103BF80008B5FFF77DFF0B4800F05DFA00B908BD76
:103C080009494FF400730B6000238B60CB600823D5
:103C18000B61064B064A034800F0D8F9054B1870AB
:103C2800EDE700BFC8040020200400200C0000209D
:103C3800B80400201C04002008B50D480D4B036093
:103C48000323436000238360C3604FF48022026132
:103C58004FF4A0024261037643768376C3760377F6
:103C6800437700F049F800B908BDFDF765F9FBE7AF
:103C7800C80400200064004010B588B000230393F6
:103C880004930593069307930268194B9A4201D04F
:103C980008B010BD0024019403F5EA331A6C42F011
:103CA80000721A641A6C02F000720192019A02946E
:103CB8001A6B42F002021A631B6B03F002030293B1
:103CC800029B4FF440730393022304930323069348
:103CD8000923079303A90748FEF706FB224601219B
:103CE8001420FEF741FD1420FEF770FDD0E700BF59
:103CF8000064004000040240002800F0A18038B5AC
:103D0800044690F82030D3B12268136823F00203E8
:103D18001360FEF7DDFD054623685A6812F0020FAE
:103D280010D0FEF7D5FD401B0A28F5D9636A43F485
:103D380000336362052384F82030012038BDFFF783
:103D48009BFFE1E71A6842F001021A60FEF7C0FD26
:103D5800054623685A6812F0010F0DD1FEF7B8FD29
:103D6800401B0A28F5D9636A43F4003363620523CC
:103D780084F82030012038BD227E012A3DD01A68FF
:103D880022F080021A60637E012B3BD02268136800
:103D980023F040031360A37E012B39D022681368F7
:103DA80023F020031360E37E012B37D022681368C9
:103DB80043F010031360237F012B35D0226813686A
:103DC80023F008031360637F012B33D02268136844
:103DD80023F0040313602168A368E268134322698F
:103DE8001343626913436268013A1343CB610020AD
:103DF8006062012384F8203038BD1A6842F08002DE
:103E08001A60C0E72268136843F040031360C2E7F2
:103E18002268136843F020031360C4E7226813681C
:103E280023F010031360C6E72268136843F0080301
:103E38001360C8E72268136843F004031360CAE7F5
:103E48000120704790F82030013BDBB2012B05D9E7
:103E5800436A43F4802343620120704770B4434BA4
:103E6800D3F8002242F00102C3F80022D3F800225E
:103E780022F47C52C3F80022D3F80022486A42EAAE
:103E88000022C3F800224A6902F01F02012000FA4A
:103E980002F2D3F81C42D0430440C3F81C42CB6959
:103EA800B3B9324BD3F80C420440C3F80C424C6906
:103EB800CE688D8845EA0645483443F834504D6944
:103EC8008E680C8844EA0644483503EBC5035C60F9
:103ED800CB69012B1DD08B69002B32D1234CD4F830
:103EE80004320340C4F804320B698BBB1F4BD3F870
:103EF80014422040C3F814020B6A012B2FD01B4A2E
:103F0800D2F8003223F00103C2F80032002070BC5E
:103F18007047164BD3F80C421443C3F80C424C6953
:103F28000E688D8845EA0645483443F834504D6993
:103F38008E688C8944EA0644483503EBC5035C6007
:103F4800C9E70A4CD4F804321343C4F80432CBE767
:103F58000648D0F814321343C0F81432CCE7034BA8
:103F6800D3F81C120A43C3F81C22C8E700640040B7
:103F780038B590F82030DBB2012B05D0436A43F402
:103F880000234362012038BD0446022380F8203014
:103F98000268136823F001031360FEF799FC0546D5
:103FA80023685B6813F0010F0DD0FEF791FC401BEE
:103FB8000A28F5D9636A43F400336362052384F859
:103FC8002030012038BD0020606238BD70B490F800
:103FD80020400568AD68013CE4B2012C06D9436A6B
:103FE80043F480234362012070BC704715F0E05F02
:103FF8005BD0C5F30165022D3ED80124AC401C609E
:104008008B68002B3ED104680E68CB6843EA46569D
:1040180005F118031B01E65003680C6905F1180641
:1040280003EB06135C600B7D012B36D00468D17955
:1040380093791B0443EA0163517943EA0123117917
:104048000B432E013444C4F88C310168D47893783A
:104058001B0443EA0463547843EA042312781343A5
:104068003144C1F88831026818352D01535943F09D
:10407800010353510020B7E7436A43F40003436246
:104088000120B1E704684E6843EAC603CE683343AB
:1040980005F118063601A351BEE7036803EB0613C2
:1040A800596841F480715960C0E7436A43F40013CA
:1040B8004362012098E790F82030013BDBB2012BE6
:1040C80001D90020704703689A6812F0806F0BD1FD
:1040D80000209A6812F0006F00D001309B6813F03E
:1040E800805FEFD0013070470120F2E730B490F8DC
:1040F8002040013CE4B2012C06D9436A43F48023F2
:104108004362012030BC704700296FD10468E4681D
:1041180014F0030F64D0056801F11B0424012C5925
:1041280004F004049460002C6BD1056801F11B04B1
:1041380024012C59640D1460056801F11B04240145
:104148002D5905F00205D560056825446D6805F010
:104158000F051561056825446D68C5F30725956148
:1041680005682C446468240C546104680A011444EA
:10417800D4F8B8411C7004681444D4F8B841C4F3A6
:1041880007245C7004681444D4F8B841C4F30744A5
:104198009C7004681444D4F8B841240EDC70046898
:1041A8001444D4F8BC411C7104681444D4F8BC41CC
:1041B800C4F307245C7104681444D4F8BC41C4F304
:1041C80007449C7104682244D2F8BC21120EDA71AB
:1041D800F9B90268D36843F02003D360002091E75F
:1041E800436A43F40013436201208BE7046824699F
:1041F80014F0030F8FD1436A43F400134362012084
:1042080080E7056801F11B0424012C59E408546077
:1042180092E70268136943F020031361002071E7F5
:1042280090F82030013BDBB2012B01D90020704708
:1042380021B10368186900F0030070470368D86863
:1042480000F00300704790F82030013BDBB2012BEF
:1042580005D9436A43F4802343620120704702680A
:104268005369194351610020704770477047704780
:10427800704770477047704770477047704770477E
:10428800704770472DE9F84F054603685C695F6819
:104298009E68D3F80C90D3F81080D3F818A014F0C7
:1042A800010F5AD016F0010F17D001229A6016F0AC
:1042B800020F08D116F0040F30D116F0080F07D0FE
:1042C8004FF4805B0BE0FFF7D0FF4FF0000B06E0E8
:1042D800FFF7CEFF4FF0000B01E04FF0000B16F494
:1042E800807F0BD02B684FF480729A6016F4007FA1
:1042F80017D116F4806F18D04BF4005B16F4803F8A
:104308002DD02B684FF480329A6016F4003F16D1F6
:1043180016F4802F17D04BF4004B20E04FF4006BBD
:10432800DDE72846FFF7A2FFE8E716F4006F02D0A2
:104338004BF4804BE2E72846FFF79BFFDEE7284671
:10434800FFF795FF0BE016F4002F02D04BF4803BEB
:1043580005E02846FFF78EFF01E04FF0000B14F050
:10436800080F07D019F0100F04D04BF4007B2B680E
:104378001022DA6014F0040F02D019F0080F60D18F
:1043880014F0020F04D02B68DB6813F0030F5FD121
:1043980014F0400F07D018F0100F04D04BF4806BC6
:1043A8002B6810221A6114F0200F02D018F0080FA1
:1043B80052D114F0100F04D02B681B6913F0030FAF
:1043C80051D114F4003F02D017F0100F4FD114F45C
:1043D800803F02D017F0080F50D114F4004F67D077
:1043E80017F0040F61D014F4807F04D01AF0010F85
:1043F80001D04BF0010B14F4007F04D01AF0020F27
:1044080001D04BF0020B14F4806F04D01AF0040FA3
:1044180001D04BF0040B14F4006F46D01AF0700A68
:1044280043D0BAF1300F48D02FD9BAF1500F47D046
:10443800BAF1600F47D0BAF1400F31D14BF0400BC1
:104448002EE02B680822DA602846FFF715FF97E769
:104458002846FFF710FF9BE72B6808221A612846B9
:10446800FFF70CFFA5E72846FFF707FFA9E72B682A
:1044780010225A602846FFF702FFA8E72B68082297
:104488005A602846FFF7FCFEA7E7BAF1100F05D0DF
:10449800BAF1200F04D14BF0100B01E04BF0080BE0
:1044A8002A68936923F0700393612B6804225A6089
:1044B800BBF1000F0AD1BDE8F88F4BF0200BEFE7F6
:1044C8004BF0800BECE74BF4807BE9E76B6A4BEA37
:1044D80003036B622846FFF7D4FEECE710B500F043
:1044E80093F8002417E0221D0C4902EB42028818B9
:1044F80032238B5443708370C4F1030202EB4202EF
:1045080088188B544370837000F08AF8C820FEF72F
:10451800E5F90134E4B2032CE5D910BD9C00002074
:1045280010B500230AE0094803EB43014218FF24B1
:1045380044540021517091700133DBB2072BF2D93A
:1045480000F062F800F06CF810BD00BF9C0000207D
:1045580010B500230AE0094803EB43014218002480
:104568004454FF21517091700133DBB2072BF2D90B
:1045780000F04AF800F054F810BD00BF9C0000207D
:1045880010B500230AE0094C03EB43002218FF2171
:1045980021545170002191700133DBB2032BF2D901
:1045A80000F032F800F03CF810BD00BF9C0000207D
:1045B80010B504230AE0094C03EB43002218FF213D
:1045C80021545170002191700133DBB2072BF2D9CD
:1045D80000F01AF800F024F810BD00BF9C0000207D
:1045E80010B5002309E0074C03EB43002118002213
:1045F80022544A708A700133DBB2072BF3D900F0DA
:104608000FF810BD9C00002008B54FF4C97202498C
:104618000248FEF733FA08BDF00400209401002098
:104628000023072B6BD810B464E003EB4300C100F0
:104638000A311144C024324844540132D2B2072A04
:1046480011D803EB43002F490144487880211141D8
:104658000842EAD003EB4300C1000A311144F024B8
:1046680027484454E9E700220AE003EB4300C1006D
:104678000A3111440831C024214844540132D2B2CD
:10468800072A11D803EB43011E48405C80211141E1
:104698000842EAD003EB4300C1000A311144083153
:1046A800F02417484454E9E700220AE003EB4300EA
:1046B800C1000A3111441031C02411484454013258
:1046C800D2B2072A12D803EB43000E490144887876
:1046D800802111410842E9D003EB4300C1000A31AF
:1046E80011441031F02406484454E8E701339BB2E2
:1046F800072B01D80022A2E75DF8044B70477047EA
:10470800F00400209C00002008B52DED028B9FEDE1
:10471800118ADFED110AF0EE482A9FED102AF1EE1A
:10472800061AB0EE601A9FED0E0A0E48FFF75BF905
:10473800DFED0D0AF0EE482AB0EE482ADFED0B1A3D
:10474800B0EE601A9FED0A0A0A48FFF74CF9BDEC73
:10475800028B08BD0000000000401C46CDCCCC3DBB
:1047680000401CC6840600200000FA43CDCC4C3D16
:104778000000FAC3C4060020014B1880704700BF30
:10478800B4000020114B1968114B1A688B1803EB01
:10479800D3735B1007EE903AF8EEE77A37EE800AAB
:1047A800FDEEC07A17EE903A02F6B832934207DB74
:1047B800A1F6B8318B4206DC064AC2ED007A704792
:1047C800044B1A607047034B19607047FC060020C1
:1047D800C0060020BC06002010B5834B1B7803B32D
:1047E800012B5CD0022B00F09780032B00F0C480D3
:1047F8007E4CB4F90A3000EE103A7D4BB3F9003024
:1048080000EE903AF8EEE00AB8EEC00A7948FFF7F1
:10481800F7F8FDEEC07A17EE903A2380FFF7E8F933
:1048280010BD4FF47A70FFF7A7FF704BB3F90E3045
:10483800002BB8BF5B42B3F57A6F02DD6E4B1B7875
:10484800FBB16A4BB3F90A30002BB8BF5B42642B4B
:104858001FDC694B1B78012BCAD1FEF739F8674B6F
:104868001B68C01A0A28C3D9604B5A68644B1A607F
:1048780001225D4B1A7000235F4A13705F4A136070
:10488800B6E7FEF725F85D4B186001225A4B1A70FF
:10489800AEE70023594A1360574A1370A8E75948EE
:1048A800FFF76AFF514BB3F90E30002BB8BF5B42DC
:1048B800B3F57A6F02DD544B1B78FBB14B4BB3F960
:1048C8000A30002BB8BF5B42642B1FDC4E4B1B78B1
:1048D800012B8DD1FDF7FCFF4C4B1B68C31A0A2B2B
:1048E80086D9424B5A684A4B1A6002223E4B1A70CC
:1048F8000023454A1370454A136079E7FDF7E8FF3E
:10490800424B18600122404B1A7071E700233F4A5E
:1049180013603D4A13706BE7394B1B683C4A1268B9
:10492800991A11D407EE901AF8EEE77A9FED397AC2
:10493800F4EEC77AF1EE10FACCBF012300239BB145
:104948000322294B1A7053E75B429B1A07EE903AF1
:10495800F8EEE77A9FED2F7AF4EEC77AF1EE10FAC7
:10496800CCBF01230023EAE700231F4A1370244A1F
:104978001360274A13603BE7274B93ED017ADFED7D
:10498800277A87EE270A224B19681D4B1A688B1A5B
:10499800B3F1FF3F1EDB03EBD3735B1007EE903AD6
:1049A800F8EEE77A27EE800AFFF7ECFE0F4B93ED5F
:1049B800010A1B4BD3ED000AF8EEE00AB8EEC00A74
:1049C8001848FFF71DF8FDEEC07A17EE902A084B3D
:1049D8001A800DE7521A02EBD272521007EE902A93
:1049E800F8EEE77ADEE700BFB600002054040020A6
:1049F800B400002084060020B7000020BC0000207E
:104A0800FC06002018FCFFFFB8000020C0000020B2
:104A1800C006002000004047180700200000704230
:104A2800BC060020C406002038B505460C4600F038
:104A3800DBF9D02000F020FA00F07CFA284600F0DC
:104A48001BFA00F077FA204600F016FA00F072FA26
:104A580000F0EEF938BD08B500F0B8F901216B2077
:104A6800FFF7E2FF04211920FFF7DEFF02211A20D9
:104A7800FFF7DAFF18211B20FFF7D6FF10211C20B3
:104A8800FFF7D2FF32213720FFF7CEFF0121382070
:104A9800FFF7CAFF00216A20FFF7C6FF08BD38B537
:104AA80005460C4600F0A0F9D02000F0E5F900F02A
:104AB80041FA284600F0E0F900F03CFA00F094F9D9
:104AC800D12000F0D9F900F035FA204600F008FAB4
:104AD80000F05EFA00F0ACF938BD000000000000FC
:104AE8002DE9F0432DED028B83B00DF107013B203A
:104AF800FFF7D5FF0DF106013C20FFF7D0FF9DF829
:104B080007209DF8063043EA02231BB2864C07EEC5
:104B1800903AF8EEE77AC4ED027A0DF107013D20EC
:104B2800FFF7BDFF0DF106013E20FFF7B8FF9DF826
:104B380007209DF8063043EA02231BB207EE903A9D
:104B4800F8EEE77AC4ED017A0DF107013F20FFF78F
:104B5800A6FF0DF106014020FFF7A1FF9DF80720F1
:104B68009DF8063043EA02231BB207EE903AF8EEAE
:104B7800E77AC4ED007A0DF107014320FFF78FFFB4
:104B88000DF106014420FFF78AFF9DF807209DF8E4
:104B9800063043EA02231BB2644D07EE903AF8EE62
:104BA800E77AC5ED007A0DF107014520FFF777FF99
:104BB8000DF106014620FFF772FF9DF807209DF8CA
:104BC800063043EA02231BB207EE903AF8EEE77A82
:104BD800C5ED017A0DF107014720FFF760FF0DF1E0
:104BE80006014820FFF75BFF9DF807209DF8063077
:104BF80043EA02231BB207EE903AF8EEE77AC5EDD6
:104C0800027A6068FBF756FC06460F469FED428B1A
:104C18002068FBF74FFCB0EE481AF0EE681A41EC3A
:104C2800100B00F0E9FC59EC108BA068FBF742FC74
:104C3800B0EE481AF0EE681A41EC100B00F0DCFCFC
:104C480053EC102B40464946FBF7D6FA41EC100BC3
:104C580000F062FE53EC102B30463946FBF7A8FDF6
:104C680041EC100B00F00CFB0022314B51EC100B07
:104C7800FBF774FC2AA3D3E90023FBF799FDFBF7A4
:104C88001DFF2C4D2860206880F00040FBF712FCC7
:104C980006460F466068FBF70DFCB0EE481AF0EECA
:104CA800681A41EC100B00F0A7FC59EC108BA068B7
:104CB800FBF700FCB0EE481AF0EE681A41EC100B56
:104CC80000F09AFC53EC102B40464946FBF794FA47
:104CD80041EC100B00F020FE53EC102B3046394607
:104CE800FBF766FD41EC100B00F0CAFA0022104BEE
:104CF80051EC100BFBF732FC09A3D3E90023FBF7B7
:104D080057FDFBF7DBFE686003B0BDEC028BBDE826
:104D1800F08300BFAFF300800000000000000040F7
:104D2800182D4454FB210940C4000020D000002065
:104D3800008066401807002082B000EB8000430026
:104D48009BB2ADF80630BDF806309BB25A1E92B23F
:104D5800ADF80620002BF6D102B0704700B587B039
:104D680000230593074B9A8801921122029201228F
:104D780003920222049201A91868FDF7B5FA07B058
:104D88005DF804FB2407002000B587B000230293D8
:104D98000593074B9A8801920122039202220492FA
:104DA80001A91868FDF7A0FA07B05DF804FB00BF79
:104DB80024070020014B18609980704724070020C1
:104DC800014B9860998170472407002010B5054C65
:104DD80001212046FFF7F4FF02212046FFF7EAFFF2
:104DE80010BD00BF0000024010B5FFF7B7FF0F4C21
:104DF8000122A1882068FDF76CFB0122A189A06827
:104E0800FDF767FB0420FFF797FF0022A1882068C1
:104E1800FDF75FFB0420FFF78FFF0022A189A06840
:104E2800FDF757FB0220FFF787FF10BD240700207E
:104E380010B5FFF793FF0F4C0022A189A068FDF77A
:104E480048FB0022A1882068FDF743FB0420FFF7F8
:104E580073FF0122A189A068FDF73BFB0420FFF73F
:104E68006BFF0122A1882068FDF733FB0420FFF7C0
:104E780063FF10BD2407002070B50646FFF76EFFDC
:104E8800164B002299899868FDF723FB80251AE0C4
:104E9800124B012299881868FDF71BFB0220FFF7C7
:104EA8004BFF0E4C0122A189A068FDF712FB0220DE
:104EB800FFF742FF0022A189A068FDF70AFB022044
:104EC800FFF73AFF6D0845B13542E1D1034B0022A7
:104ED80099881868FDF7FDFAE0E770BD24070020FF
:104EE80070B50646FFF750FF802506E033782B4360
:104EF80033700120FFF720FF6D08C5B10C4C00226C
:104F0800A189A068FDF7E5FA0220FFF715FF012245
:104F1800A189A068FDF7DDFAA1882068FDF7D2FA1B
:104F28000128E3D0337823EA05033370E1E770BD45
:104F38002407002010B5154C0122A1882068FDF730
:104F4800C8FA0120FFF7F8FE0122A189A068FDF741
:104F5800C0FA0120FFF7F0FEFFF716FF00240B4B05
:104F680099881868FDF7AEFA012807D10134A4B270
:104F7800F92CF4D9FFF75CFF012010BD034B002288
:104F880099899868FDF7A5FA002010BD240700202C
:104F980010B5FFF7E3FE0E4C0022A189A068FDF7CB
:104FA80098FA0122A1882068FDF793FA0220FFF7FA
:104FB800C3FE0122A189A068FDF78BFA0220FFF742
:104FC800BBFE0022A189A068FDF783FA10BD00BFCF
:104FD8002407002010B51B4B1B88B3F5FA6F2AD99C
:104FE800184B5B88B3F5FA6F25D9174B1C781CB1A1
:104FF800012C09D0012422E0FDF76AFC134B18604C
:105008000124114B1C701AE0FDF762FC0F4B1B6862
:10501800C01AB0F57A7F12D90D4C08212046FDF749
:105028005EFA4FF4FA70FDF759FC08212046FDF7A7
:1050380056FA002403E00022034B1A70012420468C
:1050480010BD00BFDC000020E0000020E4000020CC
:105058000004024010B51B4B1B88B3F5FA6F2AD920
:10506800184B5B88B3F5FA6F25D9174B1C781CB120
:10507800012C09D0012422E0FDF72AFC134B18600B
:105088000124114B1C701AE0FDF722FC0F4B1B6822
:10509800C01AB0F57A7F12D90D4C08212046FDF7C9
:1050A8001EFA4FF4FA70FDF719FC08212046FDF7A7
:1050B80016FA002403E00022034B1A70012420464C
:1050C80010BD00BFDC000020E1000020E800002047
:1050D8000004024008B5022202490348FCF720FCFC
:1050E80008BD00BFDC000020EC0000201F4B1A8820
:1050F800A2F24C41642202FB01F21D4981FB0231FC
:10510800D317C3EBA12359B200291FDB64291FDC85
:10511800164B5A88A2F24C43642202FB03F214484D
:1051280080FB0230D317C3EBA0235BB2002B11DB4B
:10513800642B11DC5E2B15DCCA1A002A0EDD5B1A03
:105148000C4A137000220C4B1A7070470021DFE7DD
:105158006421DDE70023EDE76423EBE70022054B3C
:105168001A70EFE70122044B1A707047DC00002028
:10517800179AD47C080400209400002008B5114B2D
:105188001B789BB9104BD3ED017ABAEE007AF4EE96
:10519800C77AF1EE10FA0FD4B2EE007AF4EEC77ABD
:1051A800F1EE10FA0BDCFFF7D3F908BD0022074B2C
:1051B8001A70FFF7B5F908BDFFF7E2F908BDFFF768
:1051C800F7F908BD94000020180700200804002003
:1051D800DFF834D0002103E00C4B5B584350043116
:1051E8000B480C4B42189A42F6D30B4A02E00023B4
:1051F80042F8043B094B9A42F9D3FEF781F900F0D3
:1052080011F8FBF77DFE7047000002208069000856
:1052180000000020780000207800002034070020DB
:10522800FEE7000070B50D4E0D4CA41BA410002520
:10523800A54209D10B4E0C4C01F048FBA41BA4104D
:105248000025A54205D170BD56F82530984701358F
:10525800EEE756F8253098470135F2E778690008F7
:1052680078690008786900087C69000802440346E8
:10527800934200D1704703F8011BF9E700000000D2
:105288002DE9F84F55EC104BCD4B25F000469E42CA
:10529800AA4610DDCB4B9E4200F3B38000F0AE80EF
:1052A800BAF1000F40F3F780A9A1D1E9000141EC60
:1052B800100BBDE8F88FC44B9E4200F3C180A3F1E8
:1052C800DE739E4240F3A7804FF0FF3B22462B46F9
:1052D80020462946FBF742F902460B468046894696
:1052E800FBF73CF99CA3D3E9002306460F46FBF7DE
:1052F80035F99BA3D3E90023FAF77EFF32463B46F4
:10530800FBF72CF998A3D3E90023FAF775FF324687
:105318003B46FBF723F996A3D3E90023FAF76CFF82
:1053280032463B46FBF71AF993A3D3E90023FAF771
:1053380063FF32463B46FBF711F991A3D3E90023FB
:10534800FAF75AFF42464B46FBF708F98EA3D3E912
:1053580000238046894630463946FBF7FFF88CA380
:10536800D3E90023FAF746FF32463B46FBF7F6F847
:1053780089A3D3E90023FAF73DFF32463B46FBF702
:10538800EDF887A3D3E90023FAF734FF32463B460A
:10539800FBF7E4F884A3D3E90023FAF72BFF32469E
:1053A8003B46FBF7DBF8BBF1FF3F02460B4676D0E6
:1053B80040464946FAF720FF22462B46FBF7CEF82F
:1053C800824E834B4FEACB0B5E449B44DBE90023C0
:1053D800FAF710FF22462B46FAF70CFF02460B4657
:1053E800D6E90001FAF706FFBAF1000F0FDA01F16A
:1053F8000043194641EC100BBDE8F88F002C3FF430
:105408004FAF22462B4620462946FAF7F5FE41ECD7
:10541800100BBDE8F88F66A3D3E9002310EE100A3D
:105428002946FAF7E9FE00226A4BFBF727FB00281A
:105438003FF44AAF2046294641EC100BBDE8F88FEF
:1054480000F0D2F8644B9E4255EC104B36DCA3F5C5
:1054580050239E425FDC10EE102A10EE100A2B46F5
:105468002946FAF7C9FE00225A4BFAF7C3FE002272
:1054780006460F464FF0804320462946FAF7BCFE01
:1054880002460B4630463946FBF792F94FF0000BBF
:1054980004460D461AE748A1D1E90001B7E740469E
:1054A8004946FAF7A9FE22462B46FBF757F802466B
:1054B8000B4620462946FAF79DFEA8E7474B9E4231
:1054C8001DDC10EE100A0022454B2946FAF792FE21
:1054D800002206460F46424B20462946FBF73EF877
:1054E80000223C4BFAF788FE02460B463046394606
:1054F800FBF75EF94FF0020B04460D46E6E62B4635
:1055080010EE102A00203749FBF752F94FF0030B31
:1055180004460D46DAE610EE100A00222D4B294605
:10552800FAF768FE002206460F462A4B204629460F
:10553800FAF762FE02460B4630463946FBF738F961
:105548004FF0010B04460D46C0E600BFAFF30080E4
:10555800182D4454FB21F93F11DA22E33AAD903F6C
:10556800EB0D76244B7BA93F513DD0A0660DB13F92
:105578006E204CC5CD45B73FFF8300922449C23FFA
:105588000D5555555555D53F2F6C6A2C44B4A2BFBF
:105598009AFDDE522DDEAD3F6D9A74AFF2B0B33F87
:1055A800711623FEC671BC3FC4EB98999999C93FFF
:1055B8009C7500883CE4377E182D4454FB21F9BFC4
:1055C800FFFF0F440000F07FFFFFDB3F106900087A
:1055D800306900080000F03FFFFFF23FFF7F034003
:1055E8000000F83F0000F0BF53EC102B23F00043FD
:1055F80043EC102B704700BF2DE9F04F2DED028BC7
:10560800DFF80CA38BB057EC106B55EC114B00F086
:10561800DFF99AF90080B0EE408AF0EE608AB8F1BE
:10562800FF3F34D022462B4620462946FBF730FA66
:10563800834660BB32463B4630463946FBF728FA7C
:105648008146002840F09F803046394600220023DA
:10565800FBF7ECF920B30022002320462946FBF78C
:10566800E5F98346002867D09FED9F7B0122A44B74
:10567800CDF820900092CDE90267CDE904458DED83
:10568800067B0193B8F1000F49D09FED998BB0EEDE
:10569800480AF0EE680A0BB0BDEC028BBDE8F08F4B
:1056A800B0EE480AF0EE680A00F0CEFF8046002807
:1056B80000F084804FF000084FF0000951EC180BFF
:1056C80042464B46FBF7B2F90028E0D047EC106B96
:1056D80000F0BAFF0028DAD045EC104B00F0B4FF18
:1056E8000028D4D09AF90030854A0192042100227A
:1056F800022BCDE90267CDE90445CDE90689009181
:10570800089203D0684600F0A7FF60B901F0D8F806
:105718002223036007E09FED747B8DED067B6846CE
:1057280000F09AFF50B3089B1BB101F0C9F8089B21
:1057380003609DED068BAAE745EC104B00F084FF53
:105748000028A4D00022002320462946FBF778F938
:1057580000289CD06A4A9AF90030CDF820B001217F
:10576800CDE90267CDE904458DE80600002BD2D0CB
:1057780064490020022BCDE90601D0D101F0A0F840
:1057880021230360CFE70022002320462946FBF7A8
:105798004DF900283FF47BAF9FED558B584BCDF862
:1057A80020B00122B8F1020FCDE90267CDE9044526
:1057B8008DED068B8DE80C00B1D168E747EC106BD6
:1057C80000F042FF00283FF475AF45EC104B00F0A5
:1057D8003BFF00283FF46EAF53EC182B18EE100A6D
:1057E8001946FBF755F9002861D103239AF900807F
:1057F8000093434B0890CDE90267CDE90445019336
:10580800B8F1000F2DD1DFF80C914FF0604800225D
:10581800002330463946CDE90689FBF711F90028FF
:105828003FF470AF0022384B20462946FAF796FE1F
:1058380004460D4645EC104B00F01AFF204653EC89
:10584800102B2946FBF7F2F870BB304B9AF9008011
:105858004FF06042CDE90623B8F1020F7FF452AF52
:1058680054E79FED257B00220023304639468DED15
:10587800067BFBF7E5F80028EED00022224B2046F5
:105888002946FAF76BFE04460D4645EC104B00F02E
:10589800EFFE204653EC102B2946FBF7C7F818B942
:1058A800184B0022CDE906239AF90080D4E7144B5F
:1058B8009AF90090CDF820800122CDE90267CDE960
:1058C80004458DE80C00B9F1000F3FF424AF002225
:1058D800002310461946FAF76BFFB9F1020FCDE91C
:1058E80006013FF44BAF1AE700000000000000007B
:1058F800000000000000F03F000000000000F07F02
:10590800506900080000F0FF0000E03FFFFFEFC70C
:1059180074000020FFFFEF472DE9F0432DED028BC7
:105928008BB055EC104B00F0C3FD274BB0EE408A0E
:10593800F0EE608A93F90060731C12D022462B4661
:1059480020462946FBF7A4F8074650B94FF000084F
:105958004FF000092046294642464B46FBF770F8AF
:1059680040B9B0EE480AF0EE680A0BB0BDEC028B05
:10597800BDE8F083154B08970122CDE90445CDE930
:1059880002458DE80C0096B142464B4640464946D2
:10599800FAF70EFF022ECDE906010AD100F090FFBA
:1059A80021230360089B53B99DED068BD9E7CDE908
:1059B8000689684600F050FE0028F3D1EEE700F0B3
:1059C8007FFF089B0360EFE774000020546900081C
:1059D8002DE9F04F51EC110B21F0004858EA000472
:1059E80093B03ED053EC102B714E23F00044B442D8
:1059F80010EE10AA1D462DDC894611EE10EA28D0BB
:105A0800B04527DC6A4EB04500F08380002D16466D
:105A18001F46CDE90001C0F281804FF0000BBEF1B6
:105A2800000F2FD1624B984500F09580614B984547
:105A380068D0B9F1804F00F0D1835F4B994521D1EF
:105A4800002D1FDB47EC106B13B0BDE8F04F00F0E2
:105A58002FBD6AB104F1404404F5801454EA0A03E6
:105A680008D15449002041EC100B13B0BDE8F08F69
:105A7800A045C7DD514813B0BDE8F04F00F0F0BDB8
:105A88004FF0000B47EC106BFFF7AEFD51EC100B1D
:105A9800BAF1000F1AD124B1464B25F040429A4280
:105AA80014D1B9F1000FC0F2D383002DDBDA04F171
:105AB800404404F5801454EA0B0300F0AF84BBF1B2
:105AC800010FD0D101F100431946CCE7ED0F05F1E4
