:020000040800F2
:1000000000000220A52B0008CD0B0008CF0B000834
:10001000D10B0008D30B0008D50B0008000000002E
:10002000000000000000000000000000D70B0008E6
:10003000D90B000800000000DB0B0008DD0B0008F6
:10004000F52B0008F52B0008F52B0008F52B000810
:10005000F52B0008F52B0008F52B0008F52B000800
:10006000F52B0008F52B0008E50B0008F52B000820
:10007000F52B0008F52B0008F52B0008F52B0008E0
:10008000F52B0008F52B0008F52B0008F52B0008D0
:10009000F52B0008F52B0008F52B0008FB0B0008DA
:1000A000F52B0008F52B0008F52B0008F52B0008B0
:1000B000F52B0008F52B0008F52B0008F52B0008A0
:1000C000F52B0008F52B0008F52B0008F52B000890
:1000D000F52B0008F52B0008F52B0008F52B000880
:1000E000F52B0008F52B0008F52B0008F52B000870
:1000F000F52B0008F52B0008F52B0008F52B000860
:10010000F52B0008F52B0008F52B0008F52B00084F
:10011000F52B0008F52B0008190C0008390C000815
:10012000490C0008F52B0008F52B0008F52B0008FA
:10013000F52B00080000000000000000F52B00086F
:10014000F52B0008F52B0008F52B0008F52B00080F
:10015000F52B0008F52B0008F52B0008F52B0008FF
:10016000F52B0008F52B0008F52B0008F52B0008EF
:10017000F52B0008F52B000800000000000000002F
:08018000F52B0008F52B000827
:1001880010B5054C237833B9044B13B10448AFF3C9
:1001980000800123237010BD0C0000200000000027
:1001A800502C000808B5034B1BB103490348AFF3B3
:1001B800008008BD0000000010000020502C00083E
:1001C80053B94AB9002908BF00281CBF4FF0FF31B6
:1001D8004FF0FF3000F06EB9ADF1080C6DE904CEB8
:1001E80000F006F8DDF804E0DDE9022304B070470A
:1001F8002DE9F047089D04468C46002B40F083808B
:100208008A42174647D9B2FA82F242B1C2F12000B7
:1002180024FA00F09140974040EA010C94404FEADC
:100228001748230CBCFBF8F61FFA87FE08FB16C11B
:1002380043EA014306FB0EF1994209D9FB1806F17E
:10024800FF3080F01981994240F21681023E3B440A
:100258005B1AA4B2B3FBF8F008FB103344EA03447A
:1002680000FB0EFEA64509D93C1900F1FF3380F0CA
:100278000581A64540F2028102383C4440EA064026
:10028800A4EB0E0400261DB1D4400023C5E90043A9
:100298003146BDE8F08702B9FFDEB2FA82F2002AE1
:1002A80050D1CB1B4FEA174E1FFA87F80126B3FB34
:1002B800FEFC210C0EFB1C3341EA034108FB0CF346
:1002C8008B4207D979180CF1FF3002D28B4200F229
:1002D800E9808446C91AA3B2B1FBFEF00EFB1011E7
:1002E80043EA014408FB00F8A04507D93C1900F18E
:1002F800FF3302D2A04500F2D9801846A4EB0804C7
:1003080040EA0C40BFE78B4209D9002D00F0B180CC
:100318000026C5E9000130463146BDE8F087B3FA4A
:1003280083F6002E4AD18B4202D3824200F2B88073
:10033800841A61EB030101208C46002DA8D0C5E981
:10034800004CA5E7C2F1200320FA03F6974001FA12
:1003580002F04FEA174ED9403043030CB1FBFEF6CA
:100368001FFA87F80EFB161143EA014306FB08F152
:10037800994204FA02F409D9FB1806F1FF3C80F00F
:100388008D80994240F28A80023E3B445B1A81B2DA
:10039800B3FBFEF00EFB103341EA034100FB08F308
:1003A8008B4207D9791800F1FF3C73D28B4271D97F
:1003B80002383944CB1A40EA064678E7C6F1200CE1
:1003C80003FA06F422FA0CF31C4320FA0CF701FA9C
:1003D80006F34FEA144E21FA0CF11F433B0CB1FB14
:1003E800FEF91FFA84F80EFB191143EA014109FBD3
:1003F80008FA8A4502FA06F200FA06F308D96118E3
:1004080009F1FF3048D28A4546D9A9F102092144A9
:10041800A1EB0A01BFB2B1FBFEF00EFB101147EAD7
:10042800014700FB08F8B84507D9E71900F1FF3183
:100438002ED2B8452CD90238274440EA0940A7EB08
:100448000807A0FB02894F45C64649461AD317D06C
:100458005DB1B3EB0E0267EB010707FA0CFCF24043
:100468004CEA0202F740C5E9002700263146BDE8FC
:10047800F0872E4628460BE70646E9E61846FDE6CD
:100488004345E5D2B8EB020E69EB04010138DFE71A
:100498000846D2E760468DE78146B9E7664675E7C4
:1004A80030464AE7ACF1020C394413E702383C44C1
:1004B80024E700BF704700BF30B595B03022002157
:1004C80008A802F0B9FB0024039404940594069448
:1004D800079401941B4B1A6C42F080521A641B6CEF
:1004E80003F080530193019B0294174B1A6842F45E
:1004F80080421A601B6803F480430293029B012325
:1005080008934FF48033099302250E954FF4800326
:100518000F93062310936C231193129504231393BE
:1005280008A800F03FFD0F230393049505944FF4AA
:10053800805306930794294603A800F08FFF15B04F
:1005480030BD00BF003802400070004008B501F01F
:1005580085FBFFF7B1FF00F013F800F051F900F048
:10056800A9F800F067F900F0A5FA00F0C1F900F069
:10057800E7F902F075F802F081F8FCE7704700002F
:100588002DE9F0418AB00024059406940794089454
:1005980009940094424B1A6B42F004021A631A6BD6
:1005A80002F004020092009A01941A6B42F0800251
:1005B8001A631A6B02F080020192019A02941A6B74
:1005C80042F002021A631A6B02F002020292029AC5
:1005D80003941A6B42F001021A631A6B02F00102CB
:1005E8000392039A04941A6B42F008021A631B6B75
:1005F80003F008030493049B2A4F22464FF400514A
:10060800384601F0C8F8284E22464FF4805130464B
:1006180001F0C1F84FF4005305930125069507949E
:10062800089405A9384600F0C9FF4FF48053059394
:1006380006950794089405A9304600F0BFFF4FF4CB
:1006480000730593DFF86880CDF81880079505A931
:10065800384600F0B3FF042305930694079505A9CF
:10066800124800F0ABFF30230593CDF818800795AA
:1006780005A9304600F0A2FF224621460A2001F0D3
:100688006FFA0A2001F0A0FA22462146172001F04D
:1006980067FA172001F098FA0AB0BDE8F08100BFA8
:1006A800003802400008024000040240000C0240EA
:1006B8000000311000B585B0002300930193029328
:1006C80003932248224A0260436083600122026148
:1006D800037680F820304FF08051C1624FF00061FE
:1006E8008162C3600321C16180F83030426100F04B
:1006F80065FBF8B90A2300930123019300230293B1
:100708006946124800F086FBB8B90B230093022310
:10071800019369460D4800F07DFB88B90F230093CB
:10072800032301936946094800F074FB58B905B0E2
:100738005DF804FBFFF722FFDCE7FFF71FFFE4E7A4
:10074800FFF71CFFEAE7FFF719FFF0E73800002082
:100758000020014030B589B000230393049305932A
:1007680006930793026803F1804303F590339A4296
:1007780001D009B030BD04460025019503F58C333E
:100788005A6C42F480725A645A6C02F48072019274
:10079800019A02951A6B42F004021A631B6B03F06C
:1007A80004030293029B23230393032304930595D5
:1007B80003A9104800F002FF0F48104B0360456082
:1007C8008560C5604FF4806303614FF40063436143
:1007D8004FF4005383614FF48073C361056245622F
:1007E80001F058F818B9044BA3639C63C1E7FFF7FD
:1007F800C5FEF8E7000802408000002010640240AF
:1008080000B583B000210191094B1A6B42F48002B4
:100818001A631B6B03F480030193019B0A4638207B
:1008280001F09EF9382001F0CFF903B05DF804FB20
:100838000038024008B50F480F4B03604FF482732D
:100848004360002383604FF40062C26003610122A9
:1008580042614FF4007282613022C26103624362D6
:1008680083620A23C36201F039FA00B908BDFFF7B1
:1008780085FEFBE7E0000020003C004000B589B0A1
:100888000023039304930593069307930268164B7A
:100898009A4202D009B05DF804FB0022019203F5E8
:1008A800FE33196C41F400411964196C01F40041DC
:1008B800019101990292196B41F0040119631B6BB4
:1008C80003F004030293029B4FF4E05303930223C3
:1008D80004930592032306930623079303A9034869
:1008E80000F06CFED6E700BF003C00400008024064
:1008F80000B583B00023009301930F480F4A0260AC
:100908004722426083600923C3608023836101F02A
:100918001FFC50B90023009301936946064801F073
:1009280021FE28B903B05DF804FBFFF727FEF1E7C5
:10093800FFF724FEF6E700BF380100200010004052
:1009480000B583B00023009301931048104A026059
:1009580007224260836040F2E733C36080238361EB
:1009680001F0F6FB58B92023009300230193694650
:10097800064801F0F7FD28B903B05DF804FBFFF75E
:10098800FDFDF0E7FFF7FAFDF6E700BFB80100202C
:100998000014004000B585B00368204A934208D08F
:1009A8001F4A934212D01F4A934223D005B05DF8E4
:1009B80004FB002301931C4B5A6C42F001025A6459
:1009C8005B6C03F001030193019BEFE700210291A7
:1009D800154B1A6C42F010021A641B6C03F01003DA
:1009E8000293029B0A46362001F0BAF8362001F03D
:1009F800EBF8DBE7002103910B4B1A6C42F0200265
:100A08001A641B6C03F020030393039B0A463720E8
:100A180001F0A6F8372001F0D7F8C7E70000014039
:100A280000100040001400400038024070B588B043
:100A380000230393049305930693079302681A4BC4
:100A48009A4201D008B070BD0024019403F59C338C
:100A58001A6B42F002021A631A6B02F00202019248
:100A6800019A02941A6B42F001021A631B6B03F09D
:100A780001030293029B4FF46043039302260496FA
:100A8800059406940125079503A9084800F096FDEA
:100A98004FF4E0630393049605940694079503A91D
:100AA800034800F08BFDCDE7000001400004024040
:100AB8000000024010B596B00024129413941494C8
:100AC80015941094119409940A940B940C940D9411
:100AD8000E940F942022214601A802F0ADF8374861
:100AE800374B03604723436084603E23C36004613F
:100AF80044618023836101F02BFB002845D14FF42A
:100B08008053129312A92D4801F008FC00283FD108
:100B18002A4801F037FB00283DD100231093119398
:100B280010A9264801F01EFD002837D1602309933B
:100B380000220A920B920C920D920E920F9209A922
:100B48001E4801F071FB60BB042209A91B4801F093
:100B58006BFB48BB082209A9184801F065FB30BBAC
:100B680000230193029303930222049205934FF406
:100B780000520692089301A9104801F037FDC8B940
:100B88000E48FFF753FF16B010BDFFF7F7FCB6E7A6
:100B9800FFF7F4FCBCE7FFF7F1FCBEE7FFF7EEFC5C
:100BA800C4E7FFF7EBFCCFE7FFF7E8FCD2E7FFF776
:100BB800E5FCD5E7FFF7E2FCE2E700BF780100209B
:100BC800000001407047FEE7FEE7FEE7FEE77047DA
:100BD8007047704708B501F05BF808BD08B51020EC
:100BE80000F0E0FD01F0C2FE01F0E4FE01F084FF38
:100BF80008BD08B5202000F0D5FD4FF4007000F0C6
:100C0800D1FD01F0B3FE01F0D5FE01F075FF08BD7E
:100C180008B5054801F07AF9044A136801331360EE
:100C280001F03AFF08BD00BF38010020C4020020CF
:100C380008B5024801F06AF908BD00BFB8010020F4
:100C480008B5024800F08CFE08BD00BF80000020F7
:100C580082B0002100910B4B5A6C42F480425A64D6
:100C68005A6C02F480420092009A01911A6C42F088
:100C780080521A641B6C03F080530193019B02B0ED
:100C8800704700BF003802404A4B5A6822F440328D
:100C98005A605A6841680A435A600268536823F4E4
:100CA8008073536002685368016943EA0123536003
:100CB8000268536823F04073536002685368816880
:100CC8000B4353600268936823F4006393600268DF
:100CD8009368C1680B439360826A374B9A4257D036
:100CE8000268936823F07063936002689368816A6E
:100CF8000B4393600268936823F040539360026843
:100D08009368C16A0B4393600268936823F00203F7
:100D1800936002689368017E43EA4103936090F808
:100D28002030002B3FD00268536843F400635360BF
:100D38000268536823F46043536001684B68426A51
:100D4800013A43EA42334B600268D36A23F47003E2
:100D5800D3620168CB6AC269013A43EA0253CB62A3
:100D68000268936823F4007393600268936890F8AC
:100D7800301043EA412393600268936823F4806348
:100D8800936002689368416943EA812393607047DE
:100D98000268936823F0706393600268936823F095
:100DA80040539360B0E70268536823F400635360CC
:100DB800CAE700BF002301400100000F38B310B597
:100DC8000446036C43B1236C13F0100F0BD00120C1
:100DD800002384F83C3010BDFFF7BCFC002363649B
:100DE80084F83C30EFE7236C23F4885323F00203A4
:100DF80043F0020323642046FFF746FF00206064A7
:100E0800236C23F0030343F001032364E0E701208C
:100E18007047000030B482B00023019390F83C3052
:100E2800012B00F0B780012380F83C300B68092BB8
:100E38003ED90568EA689BB203EB43031E3B0724CF
:100E480004FA03F322EA0303EB600568EA688C6896
:100E58000B8803EB43031E3B04FA03F31343EB60D5
:100E68004B68062B3AD805686A6B03EB8303053B8E
:100E78001F2404FA03F322EA03036B6305686A6B11
:100E88004B6803EB8303053B0C8804FA03F3134315
:100E98006B630268404B9A4250D002683E4B9A42BC
:100EA80055D0002380F83C30184602B030BC70475B
:100EB80005682A699BB203EB4303072404FA03F38A
:100EC80022EA03032B6105682A698C680B8803EB07
:100ED800430304FA03F313432B61C1E70C2B16D821
:100EE80005682A6B03EB8303233B1F2404FA03F3EF
:100EF80022EA03032B6305682A6B4B6803EB830321
:100F0800233B0C8804FA03F313432B63C1E70568FA
:100F1800EA6A03EB8303413B1F2404FA03F322EA42
:100F28000303EB620568EA6A4B6803EB8303413B02
:100F38000C8804FA03F31343EB62AAE70B68122B3D
:100F4800ABD1164A536843F480035360A5E70B6896
:100F5800103B012BA5D8114A536843F40003536092
:100F68000B68102B9DD10E4B1B6802F1467202F5DF
:100F78002E3202F28332A2FB03239B0C03EB830382
:100F88005B00019302E0019B013B0193019B002B55
:100F9800F9D186E7022088E70020014000230140BC
:100FA80008000020002800F0D98170B582B00446FE
:100FB800036813F0010F3BD0A64B9B6803F00C03AA
:100FC800042B2CD0A34B9B6803F00C03082B21D0D7
:100FD8006368B3F5803F4FD0B3F5A02F52D09D4B37
:100FE8001A6822F480321A601A6822F480221A6081
:100FF8006368002B50D000F057FE0546954B1B68E0
:1010080013F4003F14D100F04FFE401B6428F5D9BB
:101018000320AAE18F4B5B6813F4800FD8D08D4B67
:101028001B6813F4003F03D06368002B00F098811D
:10103800236813F0020F54D0864B9B6813F00C0FF3
:101048003ED0844B9B6803F00C03082B33D0E36835
:10105800002B67D0804B01221A6000F025FE054660
:101068007C4B1B6813F0020F53D100F01DFE401B90
:101078000228F5D9032078E1764A136843F48033CF
:101088001360B5E7734B1A6842F480221A601A6835
:1010980042F480321A60ABE700F006FE05466D4B5D
:1010A8001B6813F4003FC3D000F0FEFD401B64280A
:1010B800F5D9032059E1674B5B6813F4800FC6D15B
:1010C800644B1B6813F0020F03D0E368012B40F058
:1010D8004981604A136823F0F803216943EAC10390
:1010E8001360236813F0080F40D0636963B35B4B48
:1010F80001221A6000F0D8FD0546564B5B6F13F0CD
:10110800020F33D100F0D0FD401B0228F5D903208F
:101118002BE1504A136823F0F803216943EAC1031D
:101128001360DEE74C4B00221A6000F0BDFD054657
:10113800484B1B6813F0020FD3D000F0B5FD401BDD
:101148000228F5D9032010E1444B00221A6000F070
:10115800ABFD05463F4B5B6F13F0020F06D000F066
:10116800A3FD401B0228F5D90320FEE0236813F0F5
:10117800040F78D0374B1B6C13F0805F0DD1002320
:101188000193344B1A6C42F080521A641B6C03F0C2
:1011980080530193019B012500E00025304B1B681B
:1011A80013F4807F21D0A368012B32D0052B36D0D1
:1011B800284B1A6F22F001021A671A6F22F00402F4
:1011C8001A67A368002B34D000F06EFD0646214B49
:1011D8001B6F13F0020F45D100F066FD801B41F232
:1011E80088339842F3D90320BFE01D4A136843F4BB
:1011F8008073136000F058FD0646194B1B6813F402
:10120800807FD0D100F050FD801B0228F5D9032043
:10121800ABE0104A136F43F001031367D1E70D4B9E
:101228001A6F42F004021A671A6F42F001021A6735
:10123800C7E700F039FD0646064B1B6F13F0020F97
:1012480010D000F031FD801B41F288339842F3D969
:1012580003208AE00038024000004742800E4742DF
:1012680000700040E5B9A369002B7DD0464A92681A
:1012780002F00C02082A51D0022B17D0434B00224F
:101288001A6000F011FD04463F4B1B6813F0007F05
:1012980042D000F009FD001B0228F5D9032064E0C4
:1012A800394A136C23F080531364DCE7374B002270
:1012B8001A6000F0F9FC0546334B1B6813F0007FF9
:1012C80006D000F0F1FC401B0228F5D903204CE0C1
:1012D800E369226A1343626A43EA8213A26A5208E4
:1012E800013A43EA0243E26A43EA0263264A536048
:1012F800264B01221A6000F0D7FC0446224B1B68DB
:1013080013F0007F06D100F0CFFC001B0228F5D9AE
:1013180003202AE0002028E0002026E0012B26D028
:10132800194B9B6803F48001E269914221D103F0D3
:101338003F02216A8A421ED1616A47F6C0721A408A
:101348008A421AD103F44032A16A8A4217D103F0C3
:101358007063E26A934214D1002006E001207047CE
:10136800012002E0012000E0002002B070BD012051
:10137800FBE70120F9E70120F7E70120F5E7012065
:10138800F3E70120F1E700BF003802406000474260
:10139800F8B52F4B9B6803F00C03042B53D0082B94
:1013A80053D12B4B5A6802F03F025B6813F4800F4D
:1013B80028D0274B5B68C3F3881358010021C01A53
:1013C80061F100018E0146EA906687013C1A66EBDE
:1013D8000105E90041EA5471E000C01841F100013B
:1013E8004B0243EAD0534402204619460023FEF735
:1013F800E7FE174B5B68C3F3014301335B00B0FBA7
:10140800F3F023E0124B5B68C3F388135C010025FB
:10141800E41A65F10005AE0146EA9466A701381B97
:1014280066EB0501CC0044EA5074C500E81844F1A5
:1014380000018B0243EA9053840220461946002398
:10144800FEF7BEFED5E7034800E00348F8BD00BF3D
:101458000038024000127A000024F400002800F04E
:101468009B8070B50D4604464F4B1B6803F00F0375
:101478008B4208D2CBB24C4A1370136803F00F03A7
:101488008B4240F08B80236813F0020F17D013F0C3
:10149800040F04D0454A936843F4E05393602368EB
:1014A80013F0080F04D0414A936843F460439360F3
:1014B8003E4A936823F0F003A1680B4393602368C6
:1014C80013F0010F32D06368012B21D09A1E012A34
:1014D80025D9364A126812F0020F61D033498A685A
:1014E80022F0030213438B6000F0DEFB06462F4B0D
:1014F8009B6803F00C036268B3EB820F16D000F010
:10150800D3FB801B41F288339842F0D9032042E094
:10151800264A126812F4003FE0D101203BE0234A3A
:10152800126812F0007FD9D1012034E01E4B1B68ED
:1015380003F00F03AB4207D9EAB21B4B1A701B68C2
:1015480003F00F03AB422DD1236813F0040F06D02C
:10155800164A936823F4E053E1680B4393602368C9
:1015680013F0080F07D0114A936823F460432169E8
:1015780043EAC1039360FFF70BFF0C4B9B68C3F36F
:1015880003130B4AD35CD8400A4B18600A4B1868FF
:1015980000F03EFB002070BD012070470120FAE7F3
:1015A8000120F8E70120F6E7003C0240003802403D
:1015B800702C0008080000200400002000230F2BD6
:1015C80000F2D980F0B583B039E0072200E00022AC
:1015D800B2403A430234684E46F82420674A1468F9
:1015E800EA4324EA05064F6817F4803F01D045EA2C
:1015F8000406624C2660646802EA04064F6817F421
:10160800003F01D045EA04065C4C6660A46802EA23
:1016180004064F6817F4801F01D045EA0406574CAA
:10162800A660E46822404E6816F4001F01D045EA1F
:101638000402524CE26001330F2B00F29A8001221F
:101648009A400C6804EA020532EA0404F3D14C68B3
:10165800661E012E03D9112C01D0122C12D18668D6
:101668005F000324BC4026EA0406CC68BC4034432F
:101678008460466826EA02064C68C4F300129A4061
:1016880032434260C7685E000324B440E24327EA5D
:1016980004078C68B4403C43C4604C68022C01D0F9
:1016A800122C13D1DF08083750F827E003F007049D
:1016B8004FEA840C0F2404FA0CF42EEA040E0C6989
:1016C80004FA0CF444EA0E0440F827400468144075
:1016D8004A6802F00302B240224302604A6812F0EC
:1016E800805FA8D000220192254A546C44F48044BB
:1016F8005464526C02F480420192019A9C08A61C20
:101708001D4A52F8267003F0030296000F22B240D9
:1017180027EA02071B4A90423FF459AF02F580625C
:1017280090421AD002F58062904218D002F5806289
:10173800904216D002F58062904214D002F5806281
:10174800904212D002F58062904210D002F5806279
:1017580090423FF43AAF08223AE7012238E70222E2
:1017680036E7032234E7042232E7052230E706226F
:101778002EE703B0F0BD704700380140003C01403F
:1017880000380240000002400369194201D00120DC
:101798007047002070470AB1816170470904816170
:1017A8007047704708B5054B5B69034200D108BD17
:1017B800024B5861FFF7F5FFF9E700BF003C014015
:1017C80010B40368D9B210390C4AA2FB01421209BD
:1017D8000B4CA25CC2655F2909D923F47F7323F0FF
:1017E800030304338365806D5DF8044B704723F46D
:1017F8007F7323F003038365F5E700BFABAAAAAAAA
:10180800682C0008836A826992B9012B0AD0022BDE
:1018180002D00BB100207047C36A13F0807F28D133
:1018280000207047C36AB3F1C07F24D000207047FE
:10183800B2F5005F09D0022B25D9032B25D1C36A45
:1018480013F0807F23D100207047032B03D8DFE8F3
:1018580003F01404140A00207047C36A13F0807F51
:101868000DD100207047C36AB3F1C07F09D00020B2
:101878007047012070470120704701207047012000
:1018880070470120704701207047002070470120F1
:101898007047000070B5044600F006FA002C5BD0D3
:1018A8000546002384F83430022384F83530226852
:1018B800136823F00103136023681A6812F0010FFC
:1018C8000AD000F0F1F9431B052BF5D920236365F5
:1018D800032084F8350070BD1A68204810406168FC
:1018E800A2680A43E1680A4321690A4361690A4315
:1018F800A1690A43E1690A43216A0A430243616A0A
:1019080004291ED01A602668756925F00705636AE0
:101918001D43042B07D1A36A1D43E36A1BB120466C
:10192800FFF770FF90B975612046FFF749FFE26D38
:101938003F239340836000206065012384F835309D
:10194800C9E7E16A206B01430A43DBE7402363658B
:10195800012084F83500BEE70120BCE73F8010F085
:10196800F0B583B0044600230193724B1D68724B97
:10197800A3FB0535AD0A876D3E68C26D0823934009
:10198800334210D003681A6812F0040F0BD01A689B
:1019980022F004021A60C26D08239340BB60436DB5
:1019A80043F001034365E26D01239340334209D0BC
:1019B8002268526912F0800F04D0BB60636D43F057
:1019C80002036365E26D04239340334209D0226821
:1019D800126812F0020F04D0BB60636D43F0040379
:1019E8006365E26D10239340334224D02268126865
:1019F80012F0080F1FD0BB6023681A6812F4802FFA
:101A08000DD01B6813F4002F04D1236C9BB1204622
:101A1800984710E0A36C73B1204698470BE01A680A
:101A280012F4807F03D11A6822F008021A60236C2E
:101A38000BB120469847E26D20239340334255D09E
:101A48002268126812F0100F50D0BB6094F835303D
:101A5800DBB2052B0ED023681A6812F4802F33D01E
:101A68001B6813F4002F2AD1636C002B3ED020464C
:101A780098473BE02268136823F016031360226836
:101A8800536923F080035361236CA3B12268136860
:101A980023F008031360E26D3F239340BB600023EB
:101AA80084F83430012384F83530236D002B3FD07F
:101AB800204698473CE0A36C002BE7D1EBE7E36BAB
:101AC800A3B12046984711E01A6812F4807F09D123
:101AD8001A6822F010021A60002384F834300123B7
:101AE80084F83530E36B0BB120469847636DFBB142
:101AF800636D13F0010F17D0052384F83530226881
:101B0800136823F001031360019B01330193AB4277
:101B180004D823681B6813F0010FF5D1002384F85B
:101B28003430012384F83530E36C0BB120469847F4
:101B380003B0F0BD08000020B5814E1B074AD368EA
:101B480023F4E0631B041B0C000200F4E060034371
:101B580043F0BF6343F40033D360704700ED00E007
:101B680030B4174BDB68C3F30223C3F10704042C1A
:101B780028BF04241D1D062D18D9033B4FF0FF353F
:101B880005FA04F421EA0401994005FA03F322EA6C
:101B98000303194300280BDB0901C9B200F16040B7
:101BA80000F5614080F8001330BC70470023E5E77A
:101BB80000F00F000901C9B2024B1954F4E700BF45
:101BC80000ED00E014ED00E0002807DB00F01F0244
:101BD800400901239340024A42F82030704700BF71
:101BE80000E100E00138B0F1807F0AD2064B58606E
:101BF800064AF02182F823100020986007221A6014
:101C080070470120704700BF10E000E000ED00E0E1
:101C180010B504460E4B18784FF47A73B3FBF0F303
:101C28000C4A1068B0FBF3F0FFF7DCFF68B90F2C23
:101C380001D901200AE0002221464FF0FF30FFF7CA
:101C48008FFF054B1C60002000E0012010BD00BF85
:101C580000000020080000200400002008B50B4BFD
:101C68001A6842F400721A601A6842F480621A60B4
:101C78001A6842F480721A600320FFF75FFF0020A1
:101C8800FFF7C6FFFEF7E4FF002008BD003C024056
:101C9800034A1168034B1B780B441360704700BF5D
:101CA800F801002000000020014B1868704700BFB1
:101CB800F801002038B50446FFF7F6FF0546B4F1F1
:101CC800FF3F02D0044B1B781C44FFF7EDFF401B7D
:101CD800A042FAD338BD00BF0000002000283BD046
:101CE80010B504460023836290F85130002B2ED0A3
:101CF800022384F851302268136823F040031360EC
:101D08006368A2681343E268134322691343626954
:101D18001343A26902F400721343E2691343226A6F
:101D28001343A16A22680B431360638B03F0040317
:101D3800616A22680B4353602268D36923F4006305
:101D4800D36100206065012384F8513010BD80F80C
:101D58005030FEF793FDCBE70120704730B4036A9B
:101D680023F001030362056A4268846924F073045E
:101D78000B681C4325F002058B682B43104DA842C5
:101D880003D005F58065A84205D123F00803CD6886
:101D98002B4323F004030A4DA84203D005F58065C0
:101DA800A84205D122F440724D6915438A692A4335
:101DB800426084614A684263036230BC704700BF76
:101DC8000000014030B4036A23F480730362036A9D
:101DD8004268C46924F073040D682C4323F400732B
:101DE8008D6843EA0523124DA84203D005F58065A6
:101DF800A84206D123F40063CD6843EA052323F4FF
:101E080080630B4DA84203D005F58065A84207D131
:101E180022F440524D6942EA05128D6942EA0512E0
:101E28004260C4614A68C263036230BC704700BF45
:101E38000000014030B4036A23F480530362036A4C
:101E48004468C26922F4E6420D6842EA052223F496
:101E580000538D6843EA0533094DA84203D005F5C0
:101E68008065A84204D124F480444D6944EA85146D
:101E78004460C2614A680264036230BC704700BFB4
:101E88000000014030B4036A056A25F001050562C7
:101E9800846924F0F00444EA021423F00A030B4393
:101EA8008461036230BC704730B4056A25F01005C0
:101EB80005628469036A24F4704444EA023423F016
:101EC800A00343EA01138461036230BC704783684E
:101ED80023F070030B4343F00703836070470268E5
:101EE800D36843F00103D3600268936803F00703E3
:101EF800062B03D0136843F00103136000207047DA
:101F080070477047704770477047704710B5044670
:101F180003681A6912F0020F11D0DA6812F0020F82
:101F28000DD06FF002021A610123037703689B69E1
:101F380013F0030F70D0FFF7E6FF00232377236821
:101F48001A6912F0040F12D0DA6812F0040F0ED0DA
:101F58006FF004021A610223237723689B6913F444
:101F6800407F5FD02046FFF7CEFF0023237723680A
:101F78001A6912F0080F12D0DA6812F0080F0ED0A2
:101F88006FF008021A61042323772368DB6913F0D2
:101F9800030F4ED02046FFF7B6FF002323772368B0
:101FA8001A6912F0100F12D0DA6812F0100F0ED062
:101FB8006FF010021A61082323772368DB6913F492
:101FC800407F3DD02046FFF79EFF002323772368FC
:101FD8001A6912F0010F03D0DA6812F0010F36D136
:101FE80023681A6912F0800F03D0DA6812F0800FA4
:101FF80034D123681A6912F0400F03D0DA6812F05E
:10200800400F32D123681A6912F0200F03D0DA6822
:1020180012F0200F30D110BDFFF774FF2046FFF7F4
:1020280073FF8AE72046FFF76DFF2046FFF76CFF36
:102038009BE72046FFF766FF2046FFF765FFACE702
:102048002046FFF75FFF2046FFF75EFFBDE76FF012
:1020580001021A612046FFF754FFC1E76FF08002C2
:102068001A61204600F0ECFAC3E76FF040021A61EB
:102078002046FFF74AFFC5E76FF020021A612046A5
:1020880000F0DDFAC7E700000368304A904212D03A
:10209800B0F1804F0FD0A2F57C4290420BD002F5F0
:1020A8008062904207D002F58062904203D002F528
:1020B8007842904203D123F070034A681343234ABD
:1020C80090422AD0B0F1804F27D0A2F57C429042AE
:1020D80023D002F5806290421FD002F580629042C0
:1020E8001BD002F57842904217D002F57052904208
:1020F80013D002F5806290420FD002F580629042C0
:102108000BD0A2F59832904207D002F58062904237
:1021180003D002F58062904203D123F44073CA6869
:10212800134323F080034A69134303608B68C36237
:102138000B688362054B984203D003F5806398428D
:1021480001D10B690363012343617047000001401B
:10215800B0B110B5044690F83D3063B1022384F85D
:102168003D30214651F8040BFFF78EFF012384F818
:102178003D30002010BD80F83C30FEF70BFCEDE749
:1021880001207047B0B110B5044690F83D3063B1F6
:10219800022384F83D30214651F8040BFFF774FF01
:1021A800012384F83D30002010BD80F83C30FFF753
:1021B800A7FEEDE70120704730B4036A23F010034F
:1021C8000362036A4468826922F4E6420D6842EABF
:1021D800052223F020038D6843EA0513114DA84218
:1021E80003D005F58065A84206D123F08003CD68A9
:1021F80043EA051323F040030A4DA84203D005F52E
:102208008065A84207D124F440644D6944EA8504F6
:102218008D6944EA8504446082614A688263036286
:1022280030BC70470000014038B590F83C30012BB5
:1022380066D004460D46012380F83C30022380F81E
:102248003D300C2A1AD8DFE802F0071919192019AD
:1022580019193419191947000068FFF77FFD22681A
:10226800936943F0080393612268936923F0040398
:1022780093612268936929690B439361012384F868
:102288003D30002084F83C0038BD0068FFF794FF1B
:102298002268936943F4006393612268936923F485
:1022A8008063936122689369296943EA01239361F2
:1022B800E4E70068FFF786FD2268D36943F0080366
:1022C800D3612268D36923F00403D3612268D369F8
:1022D80029690B43D361D1E70068FFF7ABFD22689A
:1022E800D36943F40063D3612268D36923F480631C
:1022F800D3612268D369296943EA0123D361BDE721
:102308000220C1E710B4846824F47F4442EA03221F
:102318000A43224382605DF8044B704790F83C30D2
:10232800012B66D010B50446012380F83C30022307
:1023380080F83D300268936823F47F4323F07703E5
:1023480093600B68602B40D022D8402B47D00BD924
:10235800502B0ED1CA6849680068FFF793FD5021D9
:102368002068FFF7B4FD04E0202B0CD008D9302BEF
:1023780009D0012384F83D30002084F83C0010BDCA
:102388000BB1102BF5D119462068FFF7A0FDF0E737
:10239800702B0ED0B3F5005FEBD1CB684A68896823
:1023A8000068FFF7AFFF2268936843F480439360A7
:1023B800DFE7CB684A6889680068FFF7A3FF2268EF
:1023C800936843F077039360D3E7CA684968006865
:1023D800FFF76AFD60212068FFF779FDC9E7CA6841
:1023E80049680068FFF74EFD40212068FFF76FFD40
:1023F800BFE70220704710B401F01F01012303FA60
:1024080001F4036A23EA04030362036A02FA01F18E
:102418000B4303625DF8044B7047000010B5044697
:1024280001220068FFF7E7FF23680B4A934203D0B5
:1024380002F58062934203D15A6C42F400425A6416
:102448002268936803F00703062B03D0136843F050
:1024580001031360002010BD0000014010B50446C0
:1024680000220068FFF7C7FF2368154A934217D078
:1024780002F58062934213D02368196A41F211125F
:10248800114208D1196A40F24442114203D11A6834
:1024980022F001021A60012384F83D30002010BDAB
:1024A800196A41F211121142E6D1196A40F2444206
:1024B8001142E1D15A6C22F400425A64DCE700BFB1
:1024C8000000014010B401F01F01042303FA01F4D5
:1024D800036A23EA04030362036A02FA01F10B4365
:1024E80003625DF8044B704710B504460422006887
:1024F800FFF7E8FF2268536C43F4004353642268F3
:10250800936803F00703062B03D0136843F0010315
:102518001360002010BD10B5044600220068FFF7C4
:10252800D1FF2368196A41F21112114208D1196AC0
:1025380040F24442114203D15A6C22F400425A64D8
:102548002368196A41F21112114208D1196A40F23E
:102558004442114203D11A6822F001021A60002095
:1025680010BD000090F83C30012B3BD030B4012363
:1025780080F83C30022380F83D3003685C689D6831
:1025880024F070040A6822435A600368164A93428A
:102598001AD0B3F1804F17D0A2F57C42934213D0E2
:1025A80002F5806293420FD002F5806293420BD00D
:1025B80002F57842934207D002F57052934203D055
:1025C800A2F59432934204D125F080054A68154358
:1025D8009D60012380F83D30002380F83C30184688
:1025E80030BC7047022070470000014090F83C3032
:1025F800012B22D0012380F83C30CB6823F44073B0
:102608008A68134323F480634A68134323F40063FE
:102618000A68134323F480530A69134323F40053CD
:102628004A69134323F48043CA6913430268536415
:10263800002380F83C3018467047022070477047E6
:1026480070470000054BD3F8882042F47002C3F8A5
:1026580088204FF000629A60704700BF00ED00E0EC
:1026680008B5044B1E221A7000F068F90248FFF7FB
:1026780036FC08BDB0020020B801002008B50120D2
:10268800FFF718FB08BD000010B510210E48FFF732
:102698007BF80446012800D0002420210A48FFF7CF
:1026A80073F8012808D04FF400710848FFF76CF858
:1026B800012805D0204610BD44F00404E4B2F2E736
:1026C80044F00204E4B2F5E70004024000080240C6
:1026D80010B5022848D0032800F08480012806D0CD
:1026E800604B1B6800225A639A63DA6310BD0129A4
:1026F8000CD0C1B10229F9D15A4C00212046FFF76C
:10270800ADFE00212046FFF706FFEFE7554C0021FC
:102718002046FFF783FE00212046FFF7E5FE2368E9
:1027280000225A63E2E74F4C2046FFF777FE00216C
:102738002046FFF7D9FE4C4B93F90030002BB8BF69
:102748005B42DBB207EE903AF8EEE77ADFED476AD4
:1027580087EEA67ADFED467A67EE277A2368FCEEE5
:10276800E77AC3ED0D7AC1E701290CD0C1B102297E
:10277800BCD13C4C04212046FFF770FE04212046C2
:10278800FFF7C9FEB2E7374C04212046FFF746FEA3
:1027980004212046FFF7A8FE236800229A63A5E7D4
:1027A800304C04212046FFF739FE04212046FFF76C
:1027B8009BFE2D4B93F90030002BB8BF5B42DBB278
:1027C80007EE903AF8EEE77ADFED286A87EEA67A08
:1027D800DFED277A67EE277A2368FCEEE77AC3ED08
:1027E8000E7A83E701290DD0C9B102297FF47EAFA3
:1027F8001C4C08212046FFF731FE08212046FFF730
:102808008AFE73E7174C08212046FFF707FE0821C8
:102818002046FFF769FE23680022DA6366E7114C59
:1028280008212046FFF7FAFD08212046FFF75CFE45
:102838000D4B93F90030002BB8BF5B42DBB207EEBB
:10284800903AF8EEE77ADFED096A87EEA67ADFEDCF
:10285800087A67EE277A2368FCEEE77AC3ED0F7AE9
:1028680044E700BF78010020B00200200000C84201
:1028780000007C4208B5062811D8DFE800F00411F2
:102888001E2B3845520002210120FFF721FF0221AB
:102898000846FFF71DFF02210320FFF719FF08BDB7
:1028A80000210120FFF714FF01210220FFF710FF8C
:1028B80002210320FFF70CFFF1E702210120FFF7B7
:1028C80007FF01210220FFF703FF00210320FFF784
:1028D800FFFEE4E701210846FFF7FAFE0221084659
:1028E800FFF7F6FE00210320FFF7F2FED7E70121EC
:1028F8000846FFF7EDFE00210220FFF7E9FE02215E
:102908000320FFF7E5FECAE702210120FFF7E0FEFA
:1029180000210220FFF7DCFE01210320FFF7D8FE8B
:10292800BDE700210120FFF7D3FE02210846FFF78B
:10293800CFFE01210320FFF7CBFEB0E708B5FFF774
:10294800A3FE0028FBD0FFF79FFE0728F7D001223F
:102958004FF480510348FEF71EFF0348FFF7BFFA04
:1029680008BD00BF000402403801002008B5FFF789
:102978008BFE0D4B18700D4B93F90030002B02DCC9
:10298800002B07DB08BDFFF77FFE094B185CFFF73C
:1029980071FFF7E7FFF778FEC0F10700044B185CFA
:1029A800FFF768FFEEE700BF29000020B002002013
:1029B800802C0008304B1A68304B1B68D31A07EE7E
:1029C800903AF8EE677ADFED2E6A87EEA67AF2EE95
:1029D8000C7A27EE277AF0EE087A27EE277ADFEDD1
:1029E800297AC7EE876A284BD3ED007AF8EE677A22
:1029F80077EEA67AFCEEE77AC3ED007A234B1B78D4
:102A0800082B1AD9224B9968224B1B6899421FD967
:102A1800F8EE677AF2EE026A87EEA67AF6EE007AA8
:102A280077EE277AFDEEE77A194B17EE901A598060
:102A3800002315490B6015490B7014490B780133B5
:102A48000B700E4B1A60124B9A68124B1A60704743
:102A5800F8EE677AF2EE026A87EEA67AF6EE007A68
:102A680077EE277AFDEEE77A17EE903A9BB25B4253
:102A780007494B80DCE700BFC40200202C0000207F
:102A88000050C34700007042340000202800002096
:102A9800B00200203000002008B5144B93F9002044
:102AA80082EAE273A3EBE273DBB2132B0BD8104B71
:102AB8001B68104909685B1A42F210718B4202D9EF
:102AC8000A4B002159801AB9084BB3F902302BB9C7
:102AD800064BB3F9023003B922B908BD0020FFF74D
:102AE800C9FEFAE7FFF742FFF7E700BFB002002090
:102AF800C40200202C00002008B5FFF7C5FD224BBA
:102B08001B5C012B22D0062B2BD0204A12781E49A1
:102B18008A5C934230D91E4A9368013393601B4BF9
:102B280018701B4A91684B081A48A0FB03039B08BE
:102B38002A2000FB131307EE903AF8EE677A9FED10
:102B4800167A67EE877AC2ED037A08BD0F4A1278C3
:102B58000D498A5C062AD6D10D4A936801339360E1
:102B6800DDE70A4A127808498A5C012ACDD1084A69
:102B78009368013B9360D2E79342D0D2044A9368AA
:102B8800013B9360CBE700BF802C00082A0000209F
:102B9800B0020020310CC33092240941DFF834D050
:102BA800002103E00C4B5B58435004310B480C4B9D
:102BB80042189A42F6D30B4A02E0002342F8043B3B
:102BC800094B9A42F9D3FFF73DFD00F011F8FDF7E4
:102BD800BDFC704700000220982C0008000000206F
:102BE8000C0000200C000020C8020020FEE70000B6
:102BF80070B50D4D0D4C641BA4100026A64209D1DA
:102C08000B4D0C4C00F020F8641BA4100026A642C3
:102C180005D170BD55F8043B98470136EEE755F8E5
:102C2800043B98470136F2E7902C0008902C0008E6
:102C3800902C0008942C000802440346934200D1CB
:102C4800704703F8011BF9E7F8B500BFF8BC08BCEA
:102C58009E467047F8B500BFF8BC08BC9E46704752
:102C68000006101600061016000000000000000004
:102C7800010203040607080900060405020103000F
:082C880070D5FF7F0100000080
:042C9000AD0100088A
:042C940089010008AA
:0C2C980001000000100000000024F40007
:0400000508002BA51F
:00000001FF
